:100000000C94F5000C9472160C949F160C941D0120
:100010000C941D010C941D010C9446010C941D01BF
:100020000C941D010C941D010C941D010C941D01D8
:100030000C941D010C941D010C941D010C941D01C8
:100040000C94CC160C941D010C94BC1A0C94FF1A41
:100050000C941D010C941D010C941D010C941D01A8
:100060000C941D010C941D01010402000302048A7A
:10007000050506C30B2019421E2C25802E882F2D26
:10008000370038003C8F3D106F2000005EBCE261FD
:100090003FDD83C29C7E20A3FD1F419DC3217FFCC9
:1000A000A2401E5F01E3BD3E6082DC237D9FC14212
:1000B0001CFEA0E1BF5D0380DE3C62BEE0025CDFAF
:1000C00081633D7C22C09E1D43A1FF4618FAA427F0
:1000D000799BC584DA3866E5BB5907DB856739BA91
:1000E000E406581947A5FB7826C49A653BD98704CE
:1000F0005AB8E6A7F91B45C6987A24F8A6441A9977
:10010000C7257B3A6486D85B05E7B98CD2306EEDA3
:10011000B3510F4E10F2AC2F7193CD114FADF37060
:100120002ECC92D38D6F31B2EC0E50AFF1134DCE79
:1001300090722C6D33D18F0C52B0EE326C8ED05346
:100140000DEFB1F0AE4C1291CF2D73CA947628AB5F
:10015000F517490856B4EA6937D58B5709EBB53618
:10016000688AD495CB2977F4AA4816E9B7550B8845
:10017000D6346A2B7597C94A14F6A8742AC89615FE
:100180004BA9F7B6E80A54D7896B35000000070081
:10019000020100000304060000000000000000014E
:1001A000020408102040800102040810200102040B
:1001B00008102004040404040404040202020202DD
:1001C00002030303030303000000002300260029A9
:1001D0000000000000250028002B00000000002483
:1001E0000027002A00000809121C11241FBECFEFAF
:1001F000D8E0DEBFCDBF13E0A0E0B1E0E0EFFEE36A
:1002000002C005900D92AA3DB107D9F726E0AAEDEC
:10021000B3E001C01D92AD3DB207E1F711E0CAEEB7
:10022000D1E004C02297FE010E94721FC63ED10792
:10023000C9F70E94B1170C94761F0C9400000F931D
:100240001F930E9416170091DA031091DB0320918F
:10025000DC033091DD03601B710B820B930B6F3657
:1002600071058105910528F08091DE038F5F8093F1
:10027000DE030E9416176093DA037093DB0380930A
:10028000DC039093DD031F910F9108951F920F924D
:100290000FB60F9211242F933F934F935F936F9359
:1002A0007F938F939F93AF93BF93EF93FF930E949E
:1002B000A009FF91EF91BF91AF919F918F917F9195
:1002C0006F915F914F913F912F910F900FBE0F90C3
:1002D0001F9018958FEF0E945F0C42E267EE73E06B
:1002E00080E00E94210C82E00E94400C8091E20399
:1002F000811102C00C945F0C0895CF92DF92EF92AF
:10030000FF920F931F93CF93DF93EB0100E010E078
:10031000C12CD12C76010C171D077CF480E00E94C3
:100320006415DC01B2509D010E94471FC60ED71E06
:10033000E81EF91E0F5F1F4FEECFC701B6010E94E6
:100340006A1D6B017C01BE01882777FD8095982F7F
:100350000E946C1D9B01AC01C701B6010E94D11C1B
:10036000DF91CF911F910F91FF90EF90DF90CF9091
:100370000C94871ECF92DF92EF92FF920F931F9300
:10038000CF93DF9361E086E00E94AA1561E083E1EC
:100390000E94AA1562E083E00E94AA15109205044B
:1003A00010920604109207041092080461E086E09F
:1003B0000E94E31540E855E260E070E083E396E0D8
:1003C0000E943A1B66E071E083E396E00E94FC170E
:1003D00022E030E043E353E363E170E483E396E03B
:1003E0000E94161A61E371E083E396E00E941918F7
:1003F0006AE371E083E396E00E94191860E571E01A
:1004000083E396E00E94191862E088E00E94AA1532
:1004100062E089E00E94AA1588E00E941916892BE3
:1004200029F48091000181508093000189E00E94AD
:100430001916892B19F481E080935B0480915B0489
:10044000813061F480E090E0A2E0B3E480930101A8
:1004500090930201A0930301B09304016AE070E05D
:1004600080E090E00E94451720E436E042ED61E034
:10047000809100010E94B60BCAE0D0E0D093E8035F
:10048000C093E70342E267EE73E080E00E94210C34
:1004900064E670E080E090E00E944517219770F7D5
:1004A00082E00E94400C1092E8031092E70381E082
:1004B0000E946415181619064CF481E08093E60337
:1004C0008091DF038F5F8093DF0302C01092E60309
:1004D00082E00E946415181619064CF481E080939E
:1004E000E5038091DF038F5F8093DF0302C01092EA
:1004F000E50383E00E946415181619064CF481E0A8
:100500008093E4038091DF038F5F8093DF0302C059
:100510001092E40384E00E946415181619064CF446
:1005200081E08093E3038091DF038F5F8093DF039B
:1005300002C01092E3038091DF03811103C081E0C8
:100540008093E60380E197E20E944B0960E086E039
:100550000E94E31564EF76E080E090E00E947D0168
:1005600022E538EB4EE55FE30E94201E6B017C0123
:1005700020E030E044EB52E40E941C1E181624F4E4
:1005800081E08093E20302C01092E2038091E203D3
:100590008823D1F0CAE0D0E061E086E00E94E31554
:1005A00068EC70E080E090E00E94451760E086E033
:1005B0000E94E3156CE271E080E090E00E94451734
:1005C0002197209749F714C068EE73E080E090E02F
:1005D0000E94451761E086E00E94E31560ED77E038
:1005E00080E090E00E94451760E086E00E94E315FD
:1005F00061E083E10E94E31564E670E080E090E052
:100600000E9445178AE394E00E94E61360E08AE3C3
:1006100094E00E944E148AE394E00E9474128730A2
:1006200008F086E080930904C0E080910904C817AF
:1006300070F488E0C89FB0011124665F7B4F8DE4A1
:1006400094E00E94C211882311F0CF5FEECF64EFD7
:1006500071E080E090E00E94451760E083E10E9435
:10066000E31580910904811103C01092E00303C0D7
:1006700081E08093E00383E396E00E94101C8823CE
:1006800021F081E08093E10302C01092E1038091A8
:10069000E103813009F084C162E671E083E396E012
:1006A0000E94FC1722E030E041EE5AE760EB72E472
:1006B00083E396E00E94181A6CE671E083E396E00B
:1006C0000E94FC1722E030E046E656E66BEA72E450
:1006D00083E396E00E94181A66E771E083E396E0F0
:1006E0000E94FC1722E030E043E353E36FEA72E438
:1006F00083E396E00E94181A60E871E083E396E0D5
:100700000E94FC1722E030E04AE959E961E871E40F
:1007100083E396E00E94181A68EE73E080E090E0B0
:100720000E9445176AE871E083E396E00E94FC1797
:1007300020E030E0B701A60183E396E00E94161A9C
:100740006FE271E083E396E00E9419188091E20362
:10075000882309F46BC066EA71E083E396E00E94A7
:10076000191862ED71E083E396E00E9419188091F8
:100770005B04813031F46AEF71E083E396E00E941C
:1007800019186AE072E083E396E00E94FC1740913A
:10079000010150910201609103017091040122E076
:1007A00030E083E396E00E94181A61E172E083E38F
:1007B00096E00E94FC1722E030E044E15EEA67EC3C
:1007C0007FE383E396E00E94181A60E272E083E31D
:1007D00096E00E94FC1722E030E043EC55EF68EC15
:1007E0007FE383E396E00E94181A6FE272E083E3EE
:1007F00096E00E94FC1722E030E04DEC5CEC6CECE3
:100800007FE383E396E00E94181A6EE372E083E3CD
:1008100096E00E94FC1722E030E048EB5EE165ECD8
:100820007FE383E396E00E94181A1FC06DE472E034
:1008300083E396E00E9419186FE772E083E396E085
:100840000E94FC174AE050E066EE83E396E00E94C7
:10085000FB186FE271E083E396E00E9419186FE8DD
:1008600072E083E396E00E9419188091DF03811102
:1008700003C066EC72E024C08091E603882331F067
:1008800067ED72E083E396E00E9419188091E5031A
:10089000882331F065EE72E083E396E00E94191838
:1008A0008091E403882331F063EF72E083E396E004
:1008B0000E9419188091E303882331F061E073E00E
:1008C00083E396E00E9419188091E003813079F467
:1008D0006FE073E083E396E00E94FC174AE050E08B
:1008E0006091090483E396E00E94021906C068E261
:1008F00073E083E396E00E94191862E371E083E3FA
:1009000096E00E9419186EE373E083E396E00E947C
:10091000FC174AE050E06091000183E396E00E94FA
:10092000FB1865E473E083E396E00E94FC176DE436
:1009300073E083E396E00E94FC1764E573E083E3D1
:1009400096E00E94FC174AE050E062ED70E083E31D
:1009500096E00E94D6186FE573E083E396E00E946C
:10096000FC178091E003813071F46FE773E083E35B
:1009700096E00E94FC174AE050E06091090483E38E
:1009800096E00E94FB1866E273E083E396E00E9423
:10099000191864EF71E080E090E00E94451704C0F0
:1009A00083E396E00E94BB1B8091E603882351F00D
:1009B00021EE3AE740EB52E461E070E080E795E039
:1009C0000E94810C8091E503882351F026E636E6EB
:1009D0004BEA52E462E070E084E195E00E94810C11
:1009E0008091E403882351F023E333E34FEA52E498
:1009F00063E070E088EB94E00E94810C8091E30357
:100A0000882351F02AE939E941E851E464E070E0D3
:100A10008CE594E00E94810C8091E203882309F424
:100A200060C08091E6038823A1F0209101013091FC
:100A30000201409103015091040114E1E12E1EEAEC
:100A4000F12E07EC1FE360E070E080E795E00E9484
:100A5000650C8091E5038823A1F02091010130917C
:100A60000201409103015091040113ECE12E15EFB6
:100A7000F12E08EC1FE360E070E084E195E00E9455
:100A8000650C8091E4038823A1F02091010130914D
:100A9000020140910301509104011DECE12E1CEC78
:100AA000F12E0CEC1FE360E070E088EB94E00E9414
:100AB000650C8091E3038823A1F02091010130911E
:100AC0000201409103015091040118EBE12E1EE157
:100AD000F12E05EC1FE360E070E08CE594E00E94ED
:100AE000650C42E050E06FE171E081E00E94421647
:100AF00088EB9BE09093FA038093F9039093FC03B7
:100B00008093FB039093FE038093FD039093000476
:100B10008093FF0390930204809301049093040454
:100B200080930304DF91CF911F910F91FF90EF907D
:100B3000DF90CF900895CF92DF92EF92FF9298E0EE
:100B4000899FB0011124665F7B4F8AE394E00E9485
:100B500060156B017C0120E030E04AEF52E40E9416
:100B6000CD1C87FF16C020E030E04CE552ECC701F9
:100B7000B6010E941C1E181664F420E030E040E22A
:100B800051E4C701B6010E94201E0E94391DCB010D
:100B900000C0FF90EF90DF90CF9008958F929F92CA
:100BA000AF92BF92CF92DF92EF92FF92CF93DF93FB
:100BB0000E9416176B017C018091E203882351F09B
:100BC00068EC70E080E090E00E9445171092F80316
:100BD0001092F7038091E603882309F44FC08091B7
:100BE000E2038823C9F14CED50E06EE070E080E74D
:100BF00095E00E94B80C609170057091710580912C
:100C00007205909173050E94391D7093E8036093FB
:100C1000E703609174057091750580917605909158
:100C200077050E94391D7093EA036093E90320E081
:100C300030E048EC52E460917C0570917D05809134
:100C40007E0590917F050E94201E0E94391D7093A1
:100C5000F8036093F70312C06EE776E080E795E053
:100C60000E94890F20E030E046E653E40E94201EF7
:100C70000E94391D7093E8036093E7038091E503B8
:100C8000882309F44FC08091E2038823C9F14CED19
:100C900050E06EE070E084E195E00E94B80C609155
:100CA00014057091150580911605909117050E9405
:100CB000391D7093EC036093EB03609118057091FC
:100CC000190580911A0590911B050E94391D70939A
:100CD000EE036093ED0320E030E048EC52E46091D5
:100CE00020057091210580912205909123050E9495
:100CF000201E0E94391D7093F8036093F70312C001
:100D00006EE776E084E195E00E94890F20E030E014
:100D100046E653E40E94201E0E94391D7093EC03A6
:100D20006093EB038091E403882309F44FC0809122
:100D3000E2038823C9F14CED50E06EE070E088EBEF
:100D400094E00E94B80C6091B8047091B90480914D
:100D5000BA049091BB040E94391D7093F003609314
:100D6000EF036091BC047091BD048091BE0490912A
:100D7000BF040E94391D7093F2036093F10320E0D9
:100D800030E048EC52E46091C4047091C504809155
:100D9000C6049091C7040E94201E0E94391D7093C2
:100DA000F8036093F70312C06EE776E088EB94E0F7
:100DB0000E94890F20E030E046E653E40E94201EA6
:100DC0000E94391D7093F0036093EF038091E30359
:100DD000882309F44FC08091E2038823C9F14CEDC8
:100DE00050E06EE070E08CE594E00E94B80C6091F9
:100DF0005C0470915D0480915E0490915F040E9498
:100E0000391D7093F4036093F30360916004709153
:100E1000610480916204909163040E94391D709373
:100E2000F6036093F50320E030E048EC52E4609173
:100E300068047091690480916A0490916B040E9427
:100E4000201E0E94391D7093F8036093F70312C0AF
:100E50006EE776E08CE594E00E94890F20E030E0B8
:100E600046E653E40E94201E0E94391D7093F4034D
:100E70006093F3038091E203811116C087E00E9422
:100E80006415BC01882777FD8095982F0E946C1D02
:100E90002BE23BE64EE25FE30E94201E0E94391DDA
:100EA0007093F8036093F7038091E0038130D9F5E4
:100EB00061E083E10E94E31582E390E00E944B0928
:100EC000CAE0D4E0A12CB12C8091090490E0A816CE
:100ED000B9065CF44BE0BE018AE394E00E94701313
:100EE0002FEFA21AB20A2896EFCF8AE394E00E946D
:100EF000CF1487E791E00E944B09C0E0809109047C
:100F0000C81768F48C2F0E949B05EC2FF0E0EE0FC1
:100F1000FF1FE750FC4F91838083CF5FEFCF60E0EE
:100F200083E10E94E3158091DE038823D1F0F894D9
:100F30002091DE038091050490910604A09107049E
:100F4000B0910804820F911DA11DB11D809305046D
:100F500090930604A0930704B09308041092DE0354
:100F600078948091E103813009F0D0C06091E7036B
:100F70007091E8034AE050E083E396E00E94CE18C7
:100F800066E273E083E396E00E94FC176091E90358
:100F90007091EA034AE050E083E396E00E94CE18A5
:100FA00066E273E083E396E00E94FC176091EB0336
:100FB0007091EC034AE050E083E396E00E94CE1883
:100FC00066E273E083E396E00E94FC176091ED0314
:100FD0007091EE034AE050E083E396E00E94CE1861
:100FE00066E273E083E396E00E94FC176091EF03F2
:100FF0007091F0034AE050E083E396E00E94CE183F
:1010000066E273E083E396E00E94FC176091F103CF
:101010007091F2034AE050E083E396E00E94CE181C
:1010200066E273E083E396E00E94FC176091F303AD
:101030007091F4034AE050E083E396E00E94CE18FA
:1010400066E273E083E396E00E94FC176091F5038B
:101050007091F6034AE050E083E396E00E94CE18D8
:1010600066E273E083E396E00E94FC176091F70369
:101070007091F8034AE050E083E396E00E94CE18B6
:1010800066E273E083E396E00E94FC17409105045A
:101090005091060460910704709108042AE030E042
:1010A00083E396E00E94EE1866E273E083E396E045
:1010B0000E94FC178091E003813069F067E273E0E1
:1010C00083E396E00E94191862E370E080E090E00C
:1010D0000E9445171BC0C0E080910904C81770F733
:1010E000EC2FF0E0EE0FFF1FE750FC4F60817181A5
:1010F0004AE050E083E396E00E94CE1866E273E097
:1011000083E396E00E94FC17CF5FE6CF8091E20375
:10111000882371F061E086E00E94E31568EC70E0DE
:1011200080E090E00E94451760E086E00E94E315B1
:101130000E946A010E9416174B015C018C189D08E1
:10114000AE08BF08D501C4018C599F4FAF4FBF4FA8
:10115000883E9340A105B10558F4F4E8CF2EF3E0A2
:10116000DF2EE12CF12CC818D908EA08FB0805C0CD
:10117000EAE0CE2ED12CE12CF12C8091E1038130DC
:10118000E1F46FE873E083E396E00E94FC172AE045
:1011900030E0B501A40183E396E00E94191969E9E2
:1011A00073E083E396E00E94FC172AE030E0B70189
:1011B000A60183E396E00E9419198091E203882337
:1011C00071F0C701B601DF91CF91FF90EF90DF90F2
:1011D000CF90BF90AF909F908F900C94451785EF64
:1011E000C81681E0D806E104F10420F0C601845F4E
:1011F000914002C08AE090E0DF91CF91FF90EF90A4
:10120000DF90CF90BF90AF909F908F900C944B0940
:1012100065E08DE494E00E949F116DE474E08AE340
:1012200094E00C94651283FF02C098E2892787FD41
:1012300006C08064909160009093CC0502C08091BC
:10124000CC0594B7977F94BFF89490916000986113
:10125000909360008093600078940895EAE7F0E04E
:10126000908180818F77808383B7817F846083BF03
:10127000F89483B7816083BF85B7806685BF85B7E3
:101280008F79806485BF7894889583B78E7F83BF7C
:1012900090937A000895DF92EF92FF920F931F933D
:1012A000CF93DF938C01EC0128E0E22EF12CC031CA
:1012B000D10538F19E01D12C2032310538F0D3947C
:1012C00089E0D81619F036952795F6CF1092CD05FE
:1012D0008D2D0E9413090E942E098FEF0E94130981
:1012E000C70102C0880F991FDA94E2F7C81BD90B17
:1012F0002091CD05222319F0C81BD90BD8CF80E04F
:1013000001C081E040912B0650912C0660912D0682
:1013100070912E060C1B1D0B400F511F611D711D7E
:1013200040932B0650932C0660932D0670932E0647
:10133000DF91CF911F910F91FF90EF90DF90089573
:101340008091CD058F5F8093CD0508958627682F06
:1013500062956827062E669566956025062E669529
:1013600060256770082E892F669507946795902DE4
:10137000862706946795902586270895E8982A98E9
:101380008EBD0DB407FEFDCF8EB56EBD0DB407FE4C
:10139000FDCF8EB52A9AE89A089560E00C94BE09B4
:1013A00088E20E94CD09807521F080E00E94CD097D
:1013B000F7CF0895CF93C82F81E00E94CD09682F01
:1013C000637E6C2B81E8CF910C94BE0922E0660FFE
:1013D000771F881F991F2A95D1F729E03DE340E048
:1013E00050E00E94061F66E0220F331F441F551F66
:1013F0006A95D1F72093D7053093D8054093D90546
:101400005093DA0508958091D005853021F48091BC
:10141000D105882311F080E0089584E08093D00501
:101420000E94DA0981E008959091D00581E094301E
:101430000CF080E00895882311F080E001C084E082
:101440000E94DA0984E08093D0050895CF93DF935A
:101450002A9A229A2A9A84B18C6284B980E58CBD3A
:101460008DB581608DBD6AEA8FEA0E94BE098FE268
:101470000E94CD098A3AB9F765E58FEA0E94BE0954
:101480008FE20E94CD098535B9F7C8E6D0E0FE01AC
:101490008491882339F03196649180680E94BE0956
:1014A0002296F5CF6091D60580EB0E94BE0980910F
:1014B000D7059091D805A091D905B091DA05BD0165
:1014C0008827992787E80E94BE098091D7059091C7
:1014D000D805A091D905B091DA05692F7A2F8B2F05
:1014E000992788E80E94BE096091D70589E80E9483
:1014F000BE0984E08093D005DF91CF910895CF930A
:10150000DF93EC018091D005843019F0853021F112
:101510004DC01092DE051092D1056091D6058FEF77
:101520009FEF0E94A6099093D4058093D305D09392
:10153000CF05C093CE0585E08093D0050E94D009E9
:1015400060E885EA0E94BE0980E10E94DA0962E053
:101550008EE90E94BE092AC08091DE052091D10546
:1015600090E0049630E08217930724F08091D10533
:101570008834E0F084E08093D0050E94DA098091FD
:10158000DE058334B0F48091D3059091D405892B86
:1015900081F48091DD0586FF0FC09091D5059F31C4
:1015A00059F08091DD058F71891731F08FEF9FEF32
:1015B00005C081E090E002C080E090E0DF91CF9133
:1015C0000895CF934093DE05FB0120E030E050E02A
:1015D0002417350744F4D901A152BA4F91919C9335
:1015E0002F5F3F4FF5CF86FD04C0807E9091D505DB
:1015F000890F8093DD056091D6058FEF9FEF0E94E4
:10160000A6099093D4058093D3059091DE058EEFC3
:10161000891B8093D0050E94D0098CE00E94DA09D2
:1016200060E085EA0E94BE098091D0058330DCF538
:1016300088E20E94CD0987FDF7CF8091D00587FF12
:101640001BC09091DE058091D005E091CE05F09110
:10165000CF05E90FF11DE80FF11D87FDFA95C38154
:101660006C2F8091D3059091D4050E94A609909388
:10167000D4058093D3050DC08091D005882329F02F
:10168000813031F4C091D40504C0C091D30501C0AC
:10169000CAEA6C2F80E80E94BE098091D0058F5F56
:1016A0008093D005C1CFCF9108958091D00585302A
:1016B00009F04DC060E485EA0E94BE0984E20E9400
:1016C000CD098093D205789488E20E94CD09807577
:1016D000D9F38091D10581110FC0E091CE05F09131
:1016E000CF058091D10591E0980F9093D10590910D
:1016F000D605E80FF11D908380E00E94CD09E091AE
:10170000CE05F091CF059091D10521E0290F2093CE
:10171000D105E90FF11D8083682F8091D305909149
:10172000D4050E94A6099093D4058093D305809197
:10173000DE052091D10590E0049630E082179307F2
:10174000A4F08091D105883408F4BECF089588E2D2
:101750000E94CD0983FF09C084E08093D0050E94D8
:10176000DA0960E885EA0C94BE090895CF92DF9209
:10177000EF92FF921F93CF93DF93C82F162FD42F92
:10178000F901AFEFA60FA33028F4B0E0AD54BC4F81
:10179000AC9101C0A0E0B0E020E836E948E950E0B3
:1017A0000E94651F6B017C01212F30E0A4ECB9E0A1
:1017B0000E944F1FDF019B01AC010E94651FC60EF6
:1017C000D71EE81EF91EC701B6010E94E609D09394
:1017D000D6058C2F8F718093D50564E170E080E091
:1017E00090E00E9445178091D505882341F043E0A1
:1017F00050E065E57BE080E00E94421603C080E097
:101800000E9462160E94260AC093DB058C2FDF918E
:10181000CF911F91FF90EF90DF90CF9008958CEDC6
:1018200095E00E947F0A90932506809324062091DC
:1018300024063091250681E02F3F3F4F09F480E0D8
:101840000895EF92FF921F93CF93DF931F92CDB72E
:10185000DEB7182F7B0149830E94030A4981811159
:1018600005C049830E940F0C4981F5CFB701812F34
:101870000F90DF91CF911F91FF90EF900C94E10AB0
:10188000CF93C82F0E94140A8823B9F0CC23D1F338
:1018900083B7817FC33021F0C23021F49CE003C0C4
:1018A00094E001C090E0892B83BF83B7816083BF40
:1018B000889583B78E7F83BFE5CFCF91089591E060
:1018C000811190E0892F0C941B0AEF92FF920F93E5
:1018D0001F93FC01758B648B208F318F428F538F48
:1018E000E0A2F1A202A313A340E050E060E074E4A0
:1018F00044AB55AB66AB77AB1F910F91FF90EF9068
:101900000895FC01778B668B248F358F468F578F18
:1019100040E050E060E074E440AF51AF62AF73AFBD
:1019200008958EE480937C0062E070E080E090E0B7
:101930000E94451780917A00806480937A0080919C
:101940007A0086FDFCCF809178002091790030E00C
:10195000322F2227442737FD4095542F282B60E053
:1019600070E381E190E00E94281FCA01B901089547
:101970002F923F924F925F926F927F928F929F929F
:10198000AF92BF92CF92DF92EF92FF920F931F938D
:10199000CF93DF93CDB7DEB7A8970FB6F894DEBF2D
:1019A0000FBECDBF98A78FA37E8F6D8F8A010E9437
:1019B000910C6D8B7E8B8F8B988F0E9416174B012D
:1019C0005C016FA078A428E5620E711CC801A0E03C
:1019D000B0E0898B9A8BAB8BBC8BAFA1B8A554962A
:1019E0008C910E946415F30191838083BC01882748
:1019F00077FD8095982F0E946C1D6B017C012DEC6A
:101A00003CEC4CE054E40E94CD1C87FF0BC011E07D
:101A100026E636E646EE53E4C701B6010E941C1ED8
:101A200018160CF010E00E941617681979098A0937
:101A30009B0929893A894B895C892617370748070A
:101A4000590708F040C00E941617698F7A8F8B8F54
:101A50009C8F00E010E01A8219824FA158A5405CCB
:101A60005F4F58A34F8F8FA198A58C5B9F4F9C878A
:101A70008B87AFA1B8A5A85BBF4FBAA3A9A3EFA15D
:101A8000F8A5E45BFF4FFE87ED872FA138A5205B0B
:101A90003F4F3CA32BA34FA158A54C5A5F4F588BE7
:101AA0004F878FA198A5865A9F4F9E838D832FA025
:101AB00038A49BE5290E311CAFA1B8A5A85ABF4F89
:101AC000BEA3ADA344C1112309F487CFBCCF0E94AC
:101AD0001617298D3A8D4B8D5C8D621B730B840B11
:101AE000950B29893A894B895C89621773078407AA
:101AF000950708F034C10F5F1F4FEFA1F8A584A52B
:101B000095A5A6A5B7A580A791A7A2A7B3A78489E5
:101B10000E946415AFA1B8A595969C938E93949757
:101B200056968C910E9464153C01EFA1F8A597A3ED
:101B300086A324A135A13A872987B901882777FD93
:101B40008095982F0E946C1D6B017C01AFA1B8A5F8
:101B5000D4968D909D90AD90BC90D797A50194019F
:101B60000E94681C20E030E040E85AE30E94201EFA
:101B70009B01AC01C501B4010E94691C9B01AC0131
:101B8000EFA1F8A564AB75AB86AB97ABC701B60107
:101B90000E94681C4B015C01AFA1B8A59C966D9397
:101BA0007D938D939C939F97B301882777FD8095B4
:101BB000982F0E946C1D6B017C01EFA1F8A540AC31
:101BC00051AC62AC73ACA30192010E94681C20E08E
:101BD00030E040E85AE30E94201E9B01AC01C301A3
:101BE000B2010E94691C9B01AC01AFA1B8A5D896B7
:101BF0006D937D938D939C93DB97C701B6010E94F3
:101C0000681C6B017C01EFA1F8A560AB71AB82ABE6
:101C100093ABA5019401C501B4010E94201E9B0154
:101C2000AC01AF8DB8A16D937D938D939C93139769
:101C3000EB85FC8560817181828193810E94691CA2
:101C4000AB85BC856D937D938D939C931397A70172
:101C50009601C701B6010E94201E9B01AC01E9A1BB
:101C6000FAA16083718382839383AD85BE856D9174
:101C70007D918D919C910E94691CED85FE8560830C
:101C8000718382839383AFA1B8A598964D905D90A0
:101C90006D907C909B97A3019201C501B4010E94B5
:101CA000681CEFA1F8A520A131A142A153A10E9477
:101CB000201E9B01AC01C301B2010E94691CAFA1AF
:101CC000B8A5DC966D937D938D939C93DF97A701C8
:101CD00096010E94201E9B01AC01EBA1FCA1608338
:101CE000718382839383AF85B8896D917D918D9146
:101CF0009C910E94691CEF85F889608371838283BF
:101D00009383D1018C91ED81FE818083ADA1BEA131
:101D10008D919C91E985FA858E179F070CF0F6C08E
:101D200021E0F10120830130110529F4F1018081C6
:101D3000AD81BE818C93ED81FE819081D1018C912A
:101D4000981729F0E981FA813196FA83E98329818C
:101D50003A814D8D5E8D2417350708F4B8CEAD89D4
:101D6000BE89BD01882777FD8095982F0E946C1D44
:101D700020E030E04AE754E40E94D11C20E030E04B
:101D800040E85AE30E94201E2B013C01EFA1F8A578
:101D9000208D318D428D538D0E94201E4B015C01A0
:101DA000B80180E090E00E946A1D6B017C012FA0C9
:101DB00038A4F4E42F0E311C9B01AC01D1016D91CC
:101DC0007D918D919C910E94D11C0E94871E9B0148
:101DD000AC01C501B4010E94201E69837A838B8304
:101DE0009C83EFA1F8A56487758786879787248DE4
:101DF000358D468D578DC301B2010E94201E2B01E7
:101E00003C010FA118A5045B1F4FA7019601D80143
:101E10006D917D918D919C910E94D11C0E94871E95
:101E20009B01AC01C301B2010E94201E6D837E8321
:101E30008F839887EFA1F8A5608B718B828B938B32
:101E4000A3019201C501B4010E94201EAFA0B8A455
:101E5000F4E5AF0EB11CD5012D913D914D915C91F2
:101E60000E94201EA70196010E94D11C6B017C01DB
:101E7000EFA1F8A560837183828393832D813E81D6
:101E80004F81588569817A818B819C810E94201EB7
:101E90009B01AC01AFA1B8A514966D937D938D9372
:101EA0009C931797C701B6010E94D11CEFA1F8A51A
:101EB0006087718782879387D1011D921D921D9241
:101EC0001C921397F8011082118212821382D5019D
:101ED0001D921D921D921C921397A8960FB6F8940E
:101EE000DEBF0FBECDBFDF91CF911F910F91FF904D
:101EF000EF90DF90CF90BF90AF909F908F907F90AA
:101F00006F905F904F903F902F900895D1011C9259
:101F10000ACF2F923F924F925F926F927F928F9251
:101F20009F92AF92BF92CF92DF92EF92FF920F9368
:101F30001F93CF93DF9300D000D000D0CDB7DEB792
:101F40009E838D837A8369830E94910C2B013C01CF
:101F500000E010E08D819E81845B9F4F1C01ED812C
:101F6000FE81E85BFF4FFC83EB8389819A81081730
:101F7000190709F455C0ED81FE8186890E94641518
:101F8000ED81FE8197A386A3BC01882777FD80950C
:101F9000982F0E946C1D6B017C01ED81FE8180AC4D
:101FA00091ACA2ACB3ACA50194010E94681C20E0E6
:101FB00030E040E85AE30E94201E9B01AC01C501BD
:101FC000B4010E94691C9B01AC01ED81FE8160AFF0
:101FD00071AF82AF93AFC701B6010E94681CED815B
:101FE000FE8160AB71AB82AB93AB9B01AC010E94F5
:101FF000201E9B01AC01EB81FC8160837183828395
:102000009383F10160817181828193810E94691CB7
:10201000F10160837183828393830F5F1F4FA5CF8C
:10202000B80180E090E00E946A1D9B01AC01F101C3
:1020300060817181828193810E94D11C0E94871EE0
:102040006B017C01B201882777FD8095982F0E9453
:102050006C1D20E030E04AE754E40E94D11C20E0EF
:1020600030E040E85AE30E94201EED81FE81248D7D
:10207000358D468D578D0E94201EA70196010E9426
:10208000201EED81FE81608B718B828B938BF10121
:10209000108211821282138226960FB6F894DEBF48
:1020A0000FBECDBFDF91CF911F910F91FF90EF90A9
:1020B000DF90CF90BF90AF909F908F907F906F9068
:1020C0005F904F903F902F900895FF920F931F9332
:1020D000CF93DF93FC010081C181D281F894898183
:1020E000F02EF0948F21898378941DE7115029F107
:1020F00082E090E00E946B1788818023B9F3F89406
:102100008A818F218A838981802B8983789480EECC
:1021100091E00E946B17F89489818F21898386E46E
:1021200090E00E946B178881802311E009F010E095
:1021300078948AE991E00E946B17812FDF91CF910B
:102140001F910F91FF9008951F93CF93DF93FC0190
:102150001081C181D281912F909560FF12C0F894B7
:102160008A8189238A838981812B89838AE090E00F
:102170000E946B178A81812B8A83789487E390E091
:1021800011C0F8948A8189238A838981812B89836C
:1021900081E490E00E946B178A81812B8A83789476
:1021A00085E090E0DF91CF911F910C946B170F9316
:1021B0001F93CF93DF93FC011081C181D281F894EA
:1021C0008981812B89838A81012F009580238A83CD
:1021D00083E090E00E946B178981802389838AE0E5
:1021E00090E00E946B17C881789485E390E00E948C
:1021F0006B171C2381E009F480E0DF91CF911F91E0
:102200000F910895CF92DF92EF92FF920F931F9359
:10221000CF93DF931F92CDB7DEB76C01E62E08E0B7
:1022200010E0FF24F39461E09F2D9E2109F460E00B
:10223000C60149830E94A410FF0C01501109498175
:102240000115110581F7411115C0F894D6011196B9
:10225000ED91FC91129791818C91809589238183D6
:102260001196ED91FC91129792818C918095892322
:10227000828378940F90DF91CF911F910F91FF90FF
:10228000EF90DF90CF900895EF92FF920F931F93FE
:10229000CF93DF938C01C8E0D0E0F12CEE24E394DF
:1022A000C8010E94D7108111FE28EE0C21972097BB
:1022B000B9F78F2DDF91CF911F910F91FF90EF9084
:1022C0000895CF92DF92FF920F931F93CF93DF93E6
:1022D0001F92CDB7DEB78C01F62E40E065E579831D
:1022E0000E940211CF2C7981D72E88E0F82EF601BA
:1022F00061916F0140E0C8010E940211FA94B9F7A0
:102300000F90DF91CF911F910F91FF90DF90CF90B1
:10231000089540E06CEC0C940211FC0113861586C4
:10232000148627E030E0DF01A20FB31F13961C9242
:102330002115310519F021503109F5CF08951F936A
:10234000CF93DF93EC01162F60E0812F0E94AA1536
:10235000612F70E0FB01E156FE4FE491E883FB0141
:10236000ED54FE4FE491F0E0EE0FFF1FE953FE4FF6
:10237000859194919A838983CE01DF91CF911F91AA
:102380000C948D11AF92BF92CF92DF92EF92FF9299
:102390000F931F93CF93DF931F92CDB7DEB75C01EE
:1023A000D62EE72EFC01858581115DC0C5010E94F6
:1023B0006510811105C0F5011386158614866CC061
:1023C00040E060EFC5010E94021101E0F12CC12C38
:1023D00011E0C5010E94D710682FC50169830E94D2
:1023E000D7106981613019F48130B9F433C02F2DD1
:1023F00030E068131BC0F5018385181730F4E20F35
:10240000F31F8381802349F402C0181731F060E084
:10241000193058F4F501148708C0F501EF0DF11DCE
:102420008381802B838361E009C0C12EF501E20F17
:10243000F31F8381902F909589238383C5010E9488
:10244000A4101F5F000F11F4F39401E0F7E0FF15F3
:1024500008F0BFCF113438F0F501C386C11009C0B0
:1024600081E0858706C0F50113861586148680E015
:1024700013C0F50183818823B1F3ED2DFE2D80E09B
:1024800090E0D501A80FB91F13962C9121930196C6
:1024900088309105B1F781E00F90DF91CF911F91C6
:1024A0000F91FF90EF90DF90CF90BF90AF90089585
:1024B000DC0180E0615038F0ED91E827F0E0E5576D
:1024C000FF4F8491F7CF08950895FC0184E692E1CF
:1024D000928B818B768365831482108289E081835D
:1024E00081E0828383830895FC0184810895CF93E2
:1024F000DF93EB0167E0CE010E94581291E02F813B
:10250000821390E0892FDF91CF910895CF92DF92CF
:10251000EF92FF920F931F93CF93DF9300D0CDB72D
:10252000DEB76C01F42EE52EFC018581968169836E
:102530007A830E94651069817A81882311F1F601FE
:10254000858196810E94611140E06EEBF6018581E4
:1025500096810E9402110F2D1E2D89E0F82EF601A2
:10256000858196810E944411F80181938F01FA942C
:10257000B1F7F601858196810E94651091E0813066
:1025800009F090E0892F0F900F90DF91CF911F916C
:102590000F91FF90EF90DF90CF900895CF93DF934E
:1025A000EA010E948612882351F068E0CE010E9461
:1025B000581291E02885821390E0892F01C080E0B5
:1025C000DF91CF910895EF92FF920F931F93CF93D6
:1025D000DF93EC018B017A018D819E810E94651051
:1025E000B8018D819E810E94611140E06EE48D8171
:1025F0009E810E94021140E0F70162818D819E81DF
:102600000E94021140E0F70163818D819E810E944A
:102610000211F8018081803139F040E0F7016481D6
:102620008D819E810E9402118D819E810E94651084
:10263000B8018D819E810E946111488168E48D817D
:102640009E810E94021164E170E080E090E00E94AF
:1026500045178881882331F06AE070E080E090E0DF
:102660000E9445178D819E81DF91CF911F910F911F
:10267000FF90EF900C946510EF92FF921F93CF9311
:10268000DF9300D0CDB7DEB77C01FC018581968158
:1026900069837A830E94651069817A81F701858157
:1026A00096810E94611140E064EBF701858196817B
:1026B0000E940211F701858196810E94D710182F80
:1026C000F701858196810E94651081E0111180E0FB
:1026D0000F900F90DF91CF911F91FF90EF90089591
:1026E000EF92FF920F931F93CF93DF93CDB7DEB797
:1026F0002A970FB6F894DEBF0FBECDBF7C018B01C9
:10270000242FAE014F5F5F4F2A870E94CE122A8589
:102710008823D1F0F80180818031C1F02B3041F065
:102720002C3021F02A3031F48FE305C08FE703C04D
:102730008FE501C08FE18D83AE014F5F5F4FB80120
:10274000C7010E94E31202C080E001C081E02A9626
:102750000FB6F894DEBF0FBECDBFDF91CF911F91B2
:102760000F91FF90EF900895CF93DF93CDB7DEB731
:1027700029970FB6F894DEBF0FBECDBFFB012081B5
:102780002031D1F0AE014F5F5F4F0E94CE128823FF
:1027900079F08D818F3351F020F48F3149F489E045
:1027A0000CC08F3539F08F3739F002C08AE005C090
:1027B00080E003C08BE001C08CE029960FB6F8944E
:1027C000DEBF0FBECDBFDF91CF910895EF92FF9294
:1027D0000F931F93CF93DF93CDB7DEB761970FB6FB
:1027E000F894DEBF0FBECDBF8C01FC0185819681C0
:1027F0000E948D11F8011482FF24F394BE01665FDC
:102800007F4FF801858196810E94C2118823C9F10A
:10281000BE01665F7F4FC8010E947712882371F363
:10282000F8018081811108C0BE01665F7F4FC80139
:102830000E943C13811122C0AE014F5F5F4FBE0169
:10284000665F7F4FC8010E948612F801E180BE01D9
:10285000665F7F4FC8010E94B4138E1518F4F8010B
:10286000818106C0BE01665F7F4FC8010E94B4131C
:10287000F801818384818F5F8483C0CFF801F08267
:10288000DBCF61960FB6F894DEBF0FBECDBFDF91F0
:10289000CF911F910F91FF90EF900895FC016283FB
:1028A0000895CF93DF93CDB7DEB729970FB6F8948D
:1028B000DEBF0FBECDBFAE014F5F5F4F0E948612DD
:1028C00081E09981911101C080E029960FB6F894BA
:1028D000DEBF0FBECDBFDF91CF9108958F929F9243
:1028E000AF92BF92CF92DF92EF92FF920F931F931E
:1028F000CF93DF93EC018A016950633048F4E62FEF
:10290000F0E0EE0FFF1FEA54FC4F8080918004C07E
:102910009EEE892E92E0992E0115110501F18B8111
:102920008823E9F0888181111AC00E9416176B0173
:102930007C01AA2497FCA094BA2CB801CE010E9475
:10294000511481111FC00E941617681979098A094C
:102950009B096C157D058E059F05A0F4EECFB40193
:10296000882777FD8095982FDF91CF911F910F9148
:10297000FF90EF90DF90CF90BF90AF909F908F909F
:102980000C944517DF91CF911F910F91FF90EF901D
:10299000DF90CF90BF90AF909F908F900895CF938E
:1029A000DF93EC018D819E810E9465108D819E8157
:1029B0000E948911488164E48D819E810E940211E8
:1029C0008A81882341F040E050E06981CE01DF91A7
:1029D000CF910C946E14DF91CF910895FA0120816C
:1029E00048E0249F90011124818190E0982F88274E
:1029F000990F990F990F282B392BDB018C9180317E
:102A0000C1F4678170E08681AB01481B5109CA019E
:102A10009695982F8827979587950E94F21E60516A
:102A20007109207F53E0220F331F5A95E1F7260FDB
:102A3000371FC9010895EF92FF920F931F93CF9311
:102A4000DF93CDB7DEB729970FB6F894DEBF0FBE80
:102A5000CDBF8C017B01AE014F5F5F4F0E94CE1254
:102A6000882341F0AE014F5F5F4FB701C8010E945C
:102A7000EE1402C080E894EE29960FB6F894DEBFFB
:102A80000FBECDBFDF91CF911F910F91FF90EF90BF
:102A90000895813824EE920774F0BC01882777FDF1
:102AA0008095982F0E946C1D20E030E040E05CE3B0
:102AB0000E94201E089560E070E08EEF92EC089571
:102AC0000E941B150C9449158E3008F08E508770AB
:102AD0002091050190E4299F90011124822B80937D
:102AE0007C0080917A00806480937A0080917A00E3
:102AF00086FDFCCF809178002091790090E0922BA8
:102B00000895833081F028F4813099F08230A1F06B
:102B100008958630A9F08730B9F08430D1F48091DF
:102B200080008F7D03C0809180008F77809380002C
:102B3000089584B58F7702C084B58F7D84BD0895D4
:102B40008091B0008F7703C08091B0008F7D80931B
:102B5000B0000895CF93DF9390E0FC01E156FE4F63
:102B60002491FC01ED54FE4F8491882349F190E0BB
:102B7000880F991FFC01E552FE4FA591B4918F5229
:102B80009E4FFC01C591D4919FB7611108C0F89484
:102B90008C91209582238C93888182230AC0623095
:102BA00051F4F8948C91322F309583238C93888143
:102BB000822B888304C0F8948C91822B8C939FBFC6
:102BC000DF91CF9108950F931F93CF93DF931F92BF
:102BD000CDB7DEB7282F30E0F901E557FE4F8491DD
:102BE000F901E156FE4F1491F901ED54FE4F0491A5
:102BF0000023C9F0882321F069830E94811569812F
:102C0000E02FF0E0EE0FFF1FEF52FE4FA591B491C1
:102C10009FB7F8948C91611103C01095812301C076
:102C2000812B8C939FBF0F90DF91CF911F910F91BC
:102C30000895CF93DF93282F30E0F901E557FE4F39
:102C40008491F901E156FE4FD491F901ED54FE4F04
:102C5000C491CC2391F081110E948115EC2FF0E0FA
:102C6000EE0FFF1FE953FE4FA591B4912C912D2338
:102C700081E090E021F480E002C080E090E0DF910C
:102C8000CF9108958230E8F4E82FF0E0EE0FFF1FB7
:102C9000EA5DF94F71836083813041F08091690072
:102CA0008C7F842B80936900E89A08958091690055
:102CB000440F551F440F551F837F842B8093690059
:102CC000E99A0895823068F4813011F0E89801C0E3
:102CD000E998E82FF0E0EE0FFF1FEA5DF94F11824F
:102CE000108208951F920F920FB60F9211242F9306
:102CF0003F934F935F936F937F938F939F93AF9384
:102D0000BF93EF93FF938091260690912706892B1E
:102D100029F0E0912606F09127060995FF91EF91A1
:102D2000BF91AF919F918F917F916F915F914F91E3
:102D30003F912F910F900FBE0F901F9018951F92EB
:102D40000F920FB60F9211242F933F934F935F93DF
:102D50006F937F938F939F93AF93BF93EF93FF9363
:102D60008091280690912906892B29F0E091280668
:102D7000F09129060995FF91EF91BF91AF919F9135
:102D80008F917F916F915F914F913F912F910F9014
:102D90000FBE0F901F9018951F920F920FB60F92B3
:102DA00011242F933F938F939F93AF93BF93809161
:102DB0002B0690912C06A0912D06B0912E063091F5
:102DC0002A0623E0230F2D3720F40196A11DB11D03
:102DD00005C026E8230F0296A11DB11D20932A06E7
:102DE00080932B0690932C06A0932D06B0932E066D
:102DF00080912F0690913006A0913106B091320655
:102E00000196A11DB11D80932F0690933006A093CB
:102E10003106B0933206BF91AF919F918F913F9150
:102E20002F910F900FBE0F901F9018952FB7F89409
:102E300060912B0670912C0680912D0690912E06A4
:102E40002FBF08953FB7F89480912F0690913006D8
:102E5000A0913106B091320626B5A89B05C02F3F40
:102E600019F00196A11DB11D3FBF6627782F892F4C
:102E70009A2F620F711D811D911D42E0660F771F11
:102E8000881F991F4A95D1F70895CF92DF92EF924C
:102E9000FF92CF93DF936B017C010E942217EB011D
:102EA000C114D104E104F10479F00E9422176C1BD3
:102EB0007D0B683E7340A0F381E0C81AD108E10899
:102EC000F108C851DC4FECCFDF91CF91FF90EF902C
:102ED000DF90CF9008950197009739F0880F991FE0
:102EE000880F991F02970197F1F70895789484B598
:102EF000826084BD84B5816084BD85B5826085BDF6
:102F000085B5816085BDEEE6F0E0808181608083DB
:102F1000E1E8F0E0108280818260808380818160BE
:102F20008083E0E8F0E0808181608083E1EBF0E085
:102F3000808184608083E0EBF0E080818160808329
:102F4000EAE7F0E080818460808380818260808312
:102F50008081816080838081806880831092C1003D
:102F600008950E9476170E94BA01C6EFDAE10E9426
:102F7000CE052097E1F30E94F61AF9CFCF92DF92A7
:102F8000EF92FF920F931F93CF93DF936C017A011F
:102F9000EB01E60EF71E00E010E0CE15DF0561F054
:102FA0006991D601ED91FC910190F081E02DC6016F
:102FB0000995080F191FF1CFC801DF91CF911F911B
:102FC0000F91FF90EF90DF90CF90089561157105FC
:102FD00081F0DB010D900020E9F7AD01415051096E
:102FE000461B570BDC01ED91FC910280F381E02D33
:102FF000099480E090E008950C94E617DC01ED91CF
:10300000FC910190F081E02D09940F931F93CF93D1
:10301000DF93EC016DE00E94FE178C016AE0CE01A7
:103020000E94FE17800F911FDF91CF911F910F918A
:1030300008950F931F93CF93DF93EC010E94E6173F
:103040008C01CE010E940518800F911FDF91CF9156
:103050001F910F9108958F929F92AF92BF92CF923E
:10306000DF92EF92FF920F931F93CF93DF93CDB731
:10307000DEB7A1970FB6F894DEBF0FBECDBF7C01BF
:10308000C42EE52FCB01D22E19A221E02D1510F070
:103090002AE0D22E8E010F5D1F4F8D2C912CA12C7A
:1030A000B12C6C2D7E2FA50194010E94061F8C2D42
:1030B000D29E80191124015011098A3014F4805DC8
:1030C00001C0895CF8018083211531054105510556
:1030D00021F0C22EE32FCA01E4CFB801C7010E943C
:1030E000E617A1960FB6F894DEBF0FBECDBFDF91F5
:1030F000CF911F910F91FF90EF90DF90CF90BF90F5
:10310000AF909F908F900895CF92DF92EF92FF92B1
:103110000F931F93CF93DF93EC016A017B0121157D
:10312000310579F4E881F9810190F081E02D642F77
:10313000DF91CF911F910F91FF90EF90DF90CF9093
:1031400009942A303105E9F477FF1AC06DE20E9434
:10315000FE178C0144275527BA014C195D096E09E9
:103160007F092AE0CE010E942B18800F911FDF916A
:10317000CF911F910F91FF90EF90DF90CF90089526
:103180002AE0B701A601CE01DF91CF911F910F91E7
:10319000FF90EF90DF90CF900C942B189A01AB0129
:1031A000662757FD6095762F0C9484180F931F9314
:1031B000CF93DF93EC019A01AB01662757FD609531
:1031C000762F0E9484188C01CE010E940518800F72
:1031D000911FDF91CF911F910F9108952115310516
:1031E00041F4DC01ED91FC910190F081E02D642F20
:1031F00009940C942B189A01462F50E060E070E07F
:103200000C94EE180F931F93CF93DF93EC019A0168
:10321000462F50E060E070E00E94EE188C01CE0175
:103220000E940518800F911FDF91CF911F910F9180
:1032300008950F931F93CF93DF93EC010E94EE1834
:103240008C01CE010E940518800F911FDF91CF9154
:103250001F910F9108954F925F926F927F928F927C
:103260009F92AF92BF92CF92DF92EF92FF920F9315
:103270001F93CF93DF93EC016A017B01B22E9A0179
:10328000AB01C701B6010E94C51E882319F06CEB83
:1032900073E027C026013701E89477F82FEF3FEF5E
:1032A0004FE75FE7C301B2010E94C51E81110DC047
:1032B0002FEF3FEF4FE75FE7C301B2010E94CD1C44
:1032C00018161CF460EC73E00CC02FEF3FEF4FE7D3
:1032D0005FE4C701B6010E941C1E1816ACF464EC32
:1032E00073E0CE01DF91CF911F910F91FF90EF908E
:1032F000DF90CF90BF90AF909F908F907F906F9016
:103300005F904F900C94E6172FEF3FEF4FE75FEC85
:10331000C701B6010E94CD1C87FDE1CF20E030E05F
:10332000A901C701B6010E94CD1C87FF0AC06DE24A
:10333000CE010E94FE178C01F7FAF094F7F8F09492
:1033400002C000E010E0A12C60E070E080E09FE3AC
:10335000AB1441F020E030E040E251E40E94D11C87
:10336000A394F6CF9B01AC01C701B6010E94691C72
:103370006B017C010E943E1D2B013C010E946A1DD5
:103380009B01AC01C701B6010E94681C6B017C0166
:103390002AE0B301A201CE010E942B18080F191FC9
:1033A000BB2039F068EC73E0CE010E94E617080FED
:1033B000191F7B2C772041F120E030E040E251E4FE
:1033C000C701B6010E94201E6B017C010E94391DBD
:1033D0004B01AA2497FCA094BA2C2AE030E0B50156
:1033E000A401CE010E948418080F191FC501B40161
:1033F0000E946C1D9B01AC01C701B6010E94681CB4
:103400006B017C017A94D6CFC801DF91CF911F91D7
:103410000F91FF90EF90DF90CF90BF90AF909F9073
:103420008F907F906F905F904F9008950C942B1920
:103430000F931F93CF93DF93EC010E942B198C0104
:10344000CE010E940518800F911FDF91CF911F912F
:103450000F910895FC0124853585F901E05CFF4F4B
:1034600080819181329620813181821B930B8F73F1
:1034700099270895FC0184859585FC01E05CFF4F48
:10348000408151813296208131814217530741F0AA
:103490000190F081E02DE80FF91F808190E0089500
:1034A0008FEF9FEF0895FC0184859585FC01E05C1A
:1034B000FF4F40815181329620813181421753075D
:1034C00079F0A081B181A80FB91F8C912081318141
:1034D0002F5F3F4F2F7333273183208390E0089570
:1034E0008FEF9FEF0895FC0181A1882329F0A48923
:1034F000B5898C9186FFFBCF11A20895CF93DF93FE
:10350000FC0126853785D901A05CBF4F8D919C9128
:10351000119701968F739927E901CE5BDF4F4881A0
:10352000598184179507D9F30D90BC91A02DA20F56
:10353000B31F6C93A685B785A05CBF4F11969C9373
:103540008E93A689B7892C9181E090E0078C02C008
:10355000880F991F0A94E2F7282B2C9381E081A30E
:103560000488F589E02D80818064808381E090E08B
:10357000DF91CF91089508951F920F920FB60F9289
:1035800011242F933F934F938F939F93EF93FF9328
:103590008091C00082FD1CC04091C6008091D90678
:1035A0009091DA0601968F7399272091DB0630916E
:1035B000DC068217930771F0E091D906F091DA06E4
:1035C000E756F94F40839093DA068093D90602C0FC
:1035D0008091C600FF91EF919F918F914F913F9104
:1035E0002F910F900FBE0F901F90189583E396E0D8
:1035F0000E942A1A892B11F00C94BB1A08951F926D
:103600000F920FB60F9211242F933F938F939F9396
:10361000EF93FF932091950630919606809197063F
:10362000909198062817390731F48091C1008F7D59
:103630008093C10014C0E0919706F0919806EB5A70
:10364000F94F2081809197069091980601968F738B
:10365000992790939806809397062093C600FF9130
:10366000EF919F918F913F912F910F900FBE0F90EF
:103670001F901895CF92DF92EF92FF92CF93DF9336
:10368000EC016A017B01411581EE58076105710566
:10369000F9F0EC89FD8981E090E008A002C0880F74
:1036A000991F0A94E2F7808360E079E08DE390E06F
:1036B000A70196010E94061F2150310941095109B5
:1036C0005695479537952795211580E1380798F04D
:1036D000EC89FD89108260E874E88EE190E0A70132
:1036E00096010E94061F2150310941095109569542
:1036F000479537952795E889F9893083EA89FB89C9
:10370000208319A2EE89FF89408181E090E09C012D
:103710000C8C02C0220F331F0A94E2F7422B408325
:10372000EE89FF8940819C010D8C02C0220F331F5E
:103730000A94E2F7422B4083EE89FF8940819C0185
:103740000E8C02C0220F331F0A94E2F7422B4083F3
:10375000EE89FF8920810F8C02C0880F991F0A947F
:10376000E2F7809582238083DF91CF91FF90EF90E5
:10377000DF90CF900895CF93DF93FC0186859785E6
:10378000DC01A05CBF4FEC01CE5BDF4F4D915C9143
:1037900011972881398142175307C1F7A689B78944
:1037A0004C9181E090E09C01048C02C0220F331FF9
:1037B0000A94E2F7209524232C93A689B7894C918B
:1037C0009C01058C02C0220F331F0A94E2F720955A
:1037D00024232C93A689B7894C919C01068C02C0A6
:1037E000220F331F0A94E2F7209524232C93A689F5
:1037F000B7892C91078C02C0880F991F0A94E2F7B1
:10380000809582238C9384859585FC01EE5BFF4F28
:1038100020813181329731832083DF91CF910895C8
:1038200081E00895109236061092350688EE93E0F6
:10383000A0E0B0E08093370690933806A093390655
:10384000B0933A068EEC93E090933406809333065F
:1038500089E996E09093400680933F0685E596E0DF
:10386000909342068093410685EC90E09093440645
:103870008093430684EC90E090934606809345063F
:1038800080EC90E0909348068093470681EC90E0AE
:1038900090934A068093490682EC90E090934C0600
:1038A00080934B0686EC90E090934E0680934D06F5
:1038B00084E080934F0683E08093500687E08093F6
:1038C000510685E08093520681E080935306089567
:1038D0005058BB27AA270ED075C166D130F06BD1E6
:1038E00020F031F49F3F11F41EF45BC10EF4E0951B
:1038F000E7FB51C1E92F77D180F3BA17620773074D
:103900008407950718F071F49EF58FC10EF4E095C9
:103910000B2EBA2FA02D0B01B90190010C01CA0189
:10392000A0011124FF27591B99F0593F50F4503E34
:1039300068F11A16F040A22F232F342F4427585F26
:10394000F3CF469537952795A795F0405395C9F73E
:103950007EF41F16BA0B620B730B840BBAF09150F6
:10396000A1F0FF0FBB1F661F771F881FC2F70EC095
:10397000BA0F621F731F841F48F487957795679568
:10398000B795F7959E3F08F0B3CF9395880F08F051
:103990009927EE0F979587950895D9D008F481E07F
:1039A00008950CD00FC107D140F0FED030F021F4C3
:1039B0005F3F19F0F0C0511139C1F3C014D198F331
:1039C0009923C9F35523B1F3951B550BBB27AA27A0
:1039D00062177307840738F09F5F5F4F220F331F12
:1039E000441FAA1FA9F333D00E2E3AF0E0E830D0DE
:1039F00091505040E695001CCAF729D0FE2F27D0E1
:103A0000660F771F881FBB1F261737074807AB07AE
:103A1000B0E809F0BB0B802DBF01FF2793585F4F23
:103A20002AF09E3F510568F0B6C000C15F3FECF33D
:103A3000983EDCF3869577956795B795F7959F5FE8
:103A4000C9F7880F911D9695879597F90895E1E03C
:103A5000660F771F881FBB1F621773078407BA079B
:103A600020F0621B730B840BBA0BEE1F88F7E095F6
:103A7000089504D06894B111D9C00895BCD088F0DD
:103A80009F5790F0B92F9927B751A0F0D1F0660F4A
:103A9000771F881F991F1AF0BA95C9F712C0B13065
:103AA00081F0C3D0B1E00895C0C0672F782F882778
:103AB000B85F39F0B93FCCF3869577956795B395A4
:103AC000D9F73EF490958095709561957F4F8F4F13
:103AD0009F4F0895E89409C097FB3EF49095809518
:103AE000709561957F4F8F4F9F4F9923A9F0F92FC4
:103AF00096E9BB279395F695879577956795B79542
:103B0000F111F8CFFAF4BB0F11F460FF1BC06F5F27
:103B10007F4F8F4F9F4F16C0882311F096E911C039
:103B2000772321F09EE8872F762F05C0662371F05A
:103B300096E8862F70E060E02AF09A95660F771F6E
:103B4000881FDAF7880F9695879597F90895990F4A
:103B50000008550FAA0BE0E8FEEF16161706E80757
:103B6000F907C0F012161306E407F50798F0621B78
:103B7000730B840B950B39F40A2661F0232B242B4D
:103B8000252B21F408950A2609F4A140A6958FEF6C
:103B9000811D811D089597F99F6780E870E060E0BE
:103BA00008959FEF80EC089500240A9416161706D6
:103BB00018060906089500240A941216130614061E
:103BC00005060895092E0394000C11F4882352F081
:103BD000BB0F40F4BF2B11F460FF04C06F5F7F4F39
:103BE0008F4F9F4F089557FD9058440F551F59F020
:103BF0005F3F71F04795880F97FB991F61F09F3FDA
:103C000079F087950895121613061406551FF2CF02
:103C10004695F1DF08C0161617061806991FF1CF52
:103C200086957105610508940895E894BB27662779
:103C30007727CB0197F908958ADF08F48FEF08956D
:103C40000BD0C0CFB1DF28F0B6DF18F0952309F014
:103C5000A2CFA7CF1124EACFC6DFA0F3959FD1F35F
:103C6000950F50E0551F629FF001729FBB27F00D2A
:103C7000B11D639FAA27F00DB11DAA1F649F66277F
:103C8000B00DA11D661F829F2227B00DA11D621FCE
:103C9000739FB00DA11D621F839FA00D611D221F88
:103CA000749F3327A00D611D231F849F600D211D6C
:103CB000822F762F6A2F11249F5750408AF0E1F00F
:103CC00088234AF0EE0FFF1FBB1F661F771F881F58
:103CD00091505040A9F79E3F510570F05CCFA6CFA0
:103CE0005F3FECF3983EDCF3869577956795B79543
:103CF000F795E7959F5FC1F7FE2B880F911D96956D
:103D0000879597F9089511F40EF44BCF42C073DFF5
:103D1000D0F39923D9F3CEF39F57550B87FF47D0A4
:103D20000024A0E640EA900180585695979528F423
:103D3000805C660F771F881F20F02617370748071B
:103D400030F4621B730B840B202931294A2BA69572
:103D500017940794202531254A2758F7660F771FB7
:103D6000881F20F026173707480730F4620B730BC3
:103D7000840B200D311D411DA09581F7B901842FC1
:103D80009158880F969587950895E1DE880B990BD9
:103D900008959F3F31F0915020F48795779567956E
:103DA000B795880F911D9695879597F9089591502D
:103DB0005040660F771F881FD2F70895AA1BBB1BC0
:103DC00051E107C0AA1FBB1FA617B70710F0A61B1B
:103DD000B70B881F991F5A95A9F780959095BC013C
:103DE000CD01089597FB072E16F4009407D077FDB8
:103DF00009D00E94DE1E07FC05D03EF49095819507
:103E00009F4F0895709561957F4F0895A1E21A2EF6
:103E1000AA1BBB1BFD010DC0AA1FBB1FEE1FFF1F6E
:103E2000A217B307E407F50720F0A21BB30BE40BBE
:103E3000F50B661F771F881F991F1A9469F7609505
:103E40007095809590959B01AC01BD01CF010895BF
:103E5000052E97FB1EF400940E943F1F57FD07D0CC
:103E60000E94061F07FC03D04EF40C943F1F509590
:103E70004095309521953F4F4F4F5F4F0895909556
:103E80008095709561957F4F8F4F9F4F08950E9449
:103E90004F1F332312F48A1B9B0B0C94601FA29FAD
:103EA000B001B39FC001A39F700D811D1124911D0E
:103EB000B29F700D811D1124911D08950E944F1F06
:103EC000B7FF0895821B930B08950E944F1FA59F73
:103ED000900DB49F900DA49F800D911D1124089505
:103EE000EE0FFF1F0590F491E02D0994F894FFCF99
:103EF0000A000071430172617370696D6F6E202D4D
:103F000020656D6F6E54782056332E3420446973CB
:103F100063726574652053616D706C696E672056BD
:103F2000002052464D36394357004F70656E456E3E
:103F3000657267794D6F6E69746F722E6F7267006C
:103F4000504F53542E2E2E2E2E776169742031300F
:103F50007300435420312043616C200043542032CD
:103F60002043616C2000435420332043616C2000C7
:103F7000435420342043616C2000524D5320566F2F
:103F80006C74616765206F6E2041432D4143202092
:103F900069733A207E0041432D4143206465746576
:103FA00063746564202D205265616C20506F7765C5
:103FB00072206D65617375726520656E61626C65F6
:103FC0006400617373756D696E6720707772206627
:103FD000726F6D2041432D414320286A756D7065D5
:103FE0007220636C6F7365642900555341206D6FB7
:103FF000646520616374697665005663616C3A207C
:10400000005068617365205368696674313A200016
:104010005068617365205368696674323A200050B5
:1040200068617365205368696674333A200050688C
:10403000617365205368696674343A200041432DEA
:104040004143204E4F542064657465637465642059
:104050002D204170706172656E7420507772206DF2
:1040600065617375726520656E61626C656400419F
:104070007373756D696E672056524D533A20004137
:104080007373756D696E6720706F776572206672E5
:104090006F6D2062617474202F2035562055534275
:1040A000202D20706F776572207361766520656EB4
:1040B00061626C6564004E4F204354277320646531
:1040C00074656374656400435420312064657465CD
:1040D00063746564004354203220646574656374BE
:1040E00065640043542033206465746563746564BB
:1040F000004354203420646574656374656400442F
:10410000657465637465642054656D702053656ED5
:10411000736F72733A2020004E6F2074656D706566
:104120007261747572652073656E736F72004E6F85
:1041300064653A200020467265713A2000343333BA
:104140004D687A00204E6574776F726B3A20004399
:1041500054312043543220435433204354342056A6
:10416000524D532F424154542050554C534500203A
:1041700054656D706572617475726520312D0072C1
:10418000756E74696D653A2000736C6565702066A4
:104190006F7220286D696C697365636F6E64732933
:1041A0003A20002B565A5E00BC0077016E616E000B
:1041B000696E66006F7666002E00000000007E1AB1
:0A41C000BE172A1A531A3A1A731A8E
:00000001FF
