:100000000C94F5000C94C2160C94EF160C941D0180
:100010000C941D010C941D010C9446010C941D01BF
:100020000C941D010C941D010C941D010C941D01D8
:100030000C941D010C941D010C941D010C941D01C8
:100040000C941C170C941D010C940C1B0C944F1B4E
:100050000C941D010C941D010C941D010C941D01A8
:100060000C941D010C941D01010402000302048A7A
:10007000050506C30B2019421E2C25802E882F2D26
:10008000370038003C8F3D106F2000005EBCE261FD
:100090003FDD83C29C7E20A3FD1F419DC3217FFCC9
:1000A000A2401E5F01E3BD3E6082DC237D9FC14212
:1000B0001CFEA0E1BF5D0380DE3C62BEE0025CDFAF
:1000C00081633D7C22C09E1D43A1FF4618FAA427F0
:1000D000799BC584DA3866E5BB5907DB856739BA91
:1000E000E406581947A5FB7826C49A653BD98704CE
:1000F0005AB8E6A7F91B45C6987A24F8A6441A9977
:10010000C7257B3A6486D85B05E7B98CD2306EEDA3
:10011000B3510F4E10F2AC2F7193CD114FADF37060
:100120002ECC92D38D6F31B2EC0E50AFF1134DCE79
:1001300090722C6D33D18F0C52B0EE326C8ED05346
:100140000DEFB1F0AE4C1291CF2D73CA947628AB5F
:10015000F517490856B4EA6937D58B5709EBB53618
:10016000688AD495CB2977F4AA4816E9B7550B8845
:10017000D6346A2B7597C94A14F6A8742AC89615FE
:100180004BA9F7B6E80A54D7896B35000000070081
:10019000020100000304060000000000000000014E
:1001A000020408102040800102040810200102040B
:1001B00008102004040404040404040202020202DD
:1001C00002030303030303000000002300260029A9
:1001D0000000000000250028002B00000000002483
:1001E0000027002A00005809621C11241FBECFEF0F
:1001F000D8E0DEBFCDBF14E0A0E0B1E0E0E9FFE36E
:1002000002C005900D92A830B107D9F727E0A8E009
:10021000B4E001C01D92AB30B207E1F711E0CAEEC5
:10022000D1E004C02297FE010E94C21FC63ED10742
:10023000C9F70E9401180C94C61F0C9400000F937C
:100240001F930E94661700910804109109042091E1
:100250000A0430910B04601B710B820B930B6F36F9
:1002600071058105910528F080910C048F5F8093C2
:100270000C040E946617609308047093090480932D
:100280000A0490930B041F910F9108951F920F92EF
:100290000FB60F9211242F933F934F935F936F9359
:1002A0007F938F939F93AF93BF93EF93FF930E949E
:1002B000F009FF91EF91BF91AF919F918F917F9145
:1002C0006F915F914F913F912F910F900FBE0F90C3
:1002D0001F9018958FEF0E94AF0C42E265E174E029
:1002E00080E00E94710C82E00E94900C80911004CA
:1002F000811102C00C94AF0C0895CF92DF92EF925F
:10030000FF920F931F93CF93DF93EB0100E010E078
:10031000C12CD12C76010C171D077CF480E00E94C3
:10032000B415DC01B2509D010E94971FC60ED71E66
:10033000E81EF91E0F5F1F4FEECFC701B6010E94E6
:10034000BA1D6B017C01BE01882777FD8095982F2F
:100350000E94BC1D9B01AC01C701B6010E94211D7A
:10036000DF91CF911F910F91FF90EF90DF90CF9091
:100370000C94D71ECF92DF92EF92FF920F931F93B0
:10038000CF93DF9361E086E00E94FA1561E083E19C
:100390000E94FA1562E083E00E94FA15109233047D
:1003A00010923404109235041092360461E086E015
:1003B0000E94331640E855E260E070E081E696E086
:1003C0000E948A1B62E171E081E696E00E944C186F
:1003D00022E030E043E353E363E170E481E696E03A
:1003E0000E94661A6DE371E081E696E00E9469184A
:1003F00066E471E081E696E00E9469186CE571E0C0
:1004000081E696E00E94691862E088E00E94FA1591
:1004100062E089E00E94FA1588E00E946916892B43
:1004200029F48091000181508093000189E00E94AD
:100430006916892B19F481E08093890480918904DD
:10044000813021F580E090E0A2E0B3E480930D01DB
:1004500090930E01A0930F01B093100180930901B6
:1004600090930A01A0930B01B0930C0180930501B6
:1004700090930601A0930701B093080180930101B6
:1004800090930201A0930301B09304016AE070E02D
:1004900080E090E00E94951720E436E042ED61E0B4
:1004A000809100010E94060CCAE0D0E0D0931604AF
:1004B000C093150442E265E174E080E00E94710C93
:1004C00064E670E080E090E00E949517219770F755
:1004D00082E00E94900C109216041092150481E0A4
:1004E0000E94B415181619064CF481E08093140488
:1004F00080910D048F5F80930D0402C0109214044C
:1005000082E00E94B415181619064CF481E080931D
:10051000130480910D048F5F80930D0402C010922C
:10052000130483E00E94B415181619064CF481E0F8
:100530008093120480910D048F5F80930D0402C09C
:100540001092120484E00E94B415181619064CF497
:1005500081E08093110480910D048F5F80930D04DE
:1005600002C01092110480910D04811103C081E03A
:100570008093140480E197E20E949B0960E086E08A
:100580000E94331664EF76E080E090E00E947D01E7
:1005900022E538EB4EE55FE30E94701E6B017C01A3
:1005A00020E030E044EB52E40E946C1E181624F464
:1005B00081E08093100402C0109210048091100416
:1005C0008823D1F0CAE0D0E061E086E00E943316D3
:1005D00068EC70E080E090E00E94951760E086E0B3
:1005E0000E9433166CE271E080E090E00E94951763
:1005F0002197209749F714C068EE73E080E090E0FF
:100600000E94951761E086E00E94331660ED77E066
:1006100080E090E00E94951760E086E00E9433162B
:1006200061E083E10E94331664E670E080E090E0D0
:100630000E94951788E694E00E94361460E088E6F0
:1006400094E00E949E1488E694E00E94C4128730D1
:1006500008F086E080933704C0E080913704C81723
:1006600070F488E0C89FB0011124685C7B4F8BE771
:1006700094E00E941212882311F0CF5FEECF64EF56
:1006800071E080E090E00E94951760E083E10E94B5
:10069000331680913704811103C010920E0403C0F9
:1006A00081E080930E0481E696E00E94601C88231E
:1006B00021F081E080930F0402C010920F0480911A
:1006C0000F04813009F0C0C16EE671E081E696E06A
:1006D0000E944C1822E030E04AE959E96FEA72E4DE
:1006E00081E696E00E94681A69E771E081E696E08B
:1006F0000E944C1822E030E04BE754E160EB72E4DA
:1007000081E696E00E94681A64E871E081E696E06E
:100710000E944C1822E030E043E353E36CEA72E4B9
:1007200081E696E00E94681A6FE871E081E696E043
:100730000E944C1822E030E045E85BEE61E871E48D
:1007400081E696E00E94681A68EE73E080E090E02F
:100750000E9495176AE971E081E696E00E944C18C4
:1007600020E030E0B701A60181E696E00E94661A1B
:100770006BE371E081E696E00E94691880911004B5
:10078000882309F4A7C066EB71E081E696E00E9439
:10079000691862EE71E081E696E00E946918809126
:1007A0008904813031F46AE072E081E696E00E94CB
:1007B00069186AE172E081E696E00E944C18409167
:1007C0000D0150910E0160910F017091100122E016
:1007D00030E081E696E00E94681A63E272E081E60A
:1007E00096E00E944C184091090150910A016091D5
:1007F0000B0170910C0122E030E081E696E00E944E
:10080000681A6CE272E081E696E00E944C18409112
:10081000050150910601609107017091080122E0E5
:1008200030E081E696E00E94681A65E372E081E6B6
:1008300096E00E944C184091010150910201609194
:1008400003017091040122E030E081E696E00E940D
:10085000681A6EE372E081E696E00E944C1822E08E
:1008600030E040E050E060EC7FE381E696E00E94FB
:10087000681A6DE472E081E696E00E944C1822E06E
:1008800030E040E050E060EC7FE381E696E00E94DB
:10089000681A6CE572E081E696E00E944C1822E04E
:1008A00030E04AE959E969EB7FE381E696E00E948E
:1008B000681A6BE672E081E696E00E944C1822E02E
:1008C00030E048EB5EE165EC7FE381E696E00E9474
:1008D000681A1FC06AE772E081E696E00E94691814
:1008E0006CEA72E081E696E00E944C184AE050E023
:1008F00066EE81E696E00E944B196BE371E081E6BB
:1009000096E00E9469186CEB72E081E696E00E9426
:10091000691880910D04811103C063EF72E024C057
:1009200080911404882331F064E073E081E696E05E
:100930000E94691880911304882331F062E173E00A
:1009400081E696E00E94691880911204882331F0B4
:1009500060E273E081E696E00E94691880911104DC
:10096000882331F06EE273E081E696E00E94691818
:1009700080910E04813079F46CE373E081E696E0B7
:100980000E944C184AE050E06091370481E696E0FE
:100990000E94521906C065E573E081E696E00E9468
:1009A00069186EE371E081E696E00E9469186BE6D3
:1009B00073E081E696E00E944C184AE050E06091B6
:1009C000000181E696E00E944B1962E773E081E640
:1009D00096E00E944C186AE773E081E696E00E9478
:1009E0004C1861E873E081E696E00E944C184AE0FA
:1009F00050E062ED70E081E696E00E9426196CE816
:100A000073E081E696E00E944C1880910E048130DC
:100A100071F46CEA73E081E696E00E944C184AE0BB
:100A200050E06091370481E696E00E944B1963E53F
:100A300073E081E696E00E94691864EF71E080E05F
:100A400090E00E94951704C081E696E00E940B1C7E
:100A500080911404882351F02AE939E94FEA52E4DD
:100A600061E070E08EE995E00E94D10C8091130462
:100A7000882351F02BE734E140EB52E462E070E070
:100A800082E495E00E94D10C80911204882351F0F9
:100A900023E333E34CEA52E463E070E086EE94E053
:100AA0000E94D10C80911104882351F025E83BEE7F
:100AB00041E851E464E070E08AE894E00E94D10CDF
:100AC00080911004882309F45CC080911404882369
:100AD00091F020910D0130910E0140910F01509144
:100AE0001001E12CF12C00EC1FE360E070E08EE9D6
:100AF00095E00E94B50C80911304882391F0209119
:100B0000090130910A0140910B0150910C01E12C37
:100B1000F12C00EC1FE360E070E082E495E00E94BD
:100B2000B50C809112048823A1F020910501309129
:100B3000060140910701509108011AE9E12E19E9D7
:100B4000F12E09EB1FE360E070E086EE94E00E9476
:100B5000B50C809111048823A1F0209101013091FE
:100B60000201409103015091040118EBE12E1EE1B6
:100B7000F12E05EC1FE360E070E08AE894E00E944B
:100B8000B50C42E050E06FE171E081E00E94921606
:100B900088EB9BE0909328048093270490932A0489
:100BA0008093290490932C0480932B0490932E041B
:100BB00080932D049093300480932F0490933204FB
:100BC00080933104DF91CF911F910F91FF90EF90AF
:100BD000DF90CF900895CF92DF92EF92FF9298E04E
:100BE000899FB0011124685C7B4F88E694E00E94E5
:100BF000B0156B017C0120E030E04AEF52E40E9426
:100C00001D1D87FF16C020E030E04CE552ECC70107
:100C1000B6010E946C1E181664F420E030E040E239
:100C200051E4C701B6010E94701E0E94891DCB01CC
:100C300000C0FF90EF90DF90CF9008958F929F9229
:100C4000AF92BF92CF92DF92EF92FF92CF93DF935A
:100C50000E9466176B017C0180911004882351F07B
:100C600068EC70E080E090E00E94951710922604F6
:100C70001092250480911404882309F44FC08091B8
:100C800010048823C9F14CED50E06EE070E08EE96D
:100C900095E00E94080D60919E0570919F058091DE
:100CA000A0059091A1050E94891D70931604609380
:100CB00015046091A2057091A3058091A4059091FF
:100CC000A5050E94891D709318046093170420E005
:100CD00030E048EC52E46091AA057091AB05809138
:100CE000AC059091AD050E94701E0E94891D709305
:100CF00026046093250412C06EE776E08EE995E045
:100D00000E94D90F20E030E046E653E40E94701EB6
:100D10000E94891D7093160460931504809113043A
:100D2000882309F44FC0809110048823C9F14CED49
:100D300050E06EE070E082E495E00E94080D609162
:100D400042057091430580914405909145050E94AC
:100D5000891D70931A04609319046091460570917F
:100D6000470580914805909149050E94891D70931F
:100D70001C0460931B0420E030E048EC52E46091D6
:100D80004E0570914F0580915005909151050E943C
:100D9000701E0E94891D709326046093250412C062
:100DA0006EE776E082E495E00E94D90F20E030E023
:100DB00046E653E40E94701E0E94891D70931A0437
:100DC0006093190480911204882309F44FC0809124
:100DD00010048823C9F14CED50E06EE070E086EE1F
:100DE00094E00E94080D6091E6047091E704809100
:100DF000E8049091E9040E94891D70931E04609399
:100E00001D046091EA047091EB048091EC049091D0
:100E1000ED040E94891D7093200460931F0420E05C
:100E200030E048EC52E46091F2047091F304809158
:100E3000F4049091F5040E94701E0E94891D709325
:100E400026046093250412C06EE776E086EE94E0F7
:100E50000E94D90F20E030E046E653E40E94701E65
:100E60000E94891D70931E0460931D0480911104DB
:100E7000882309F44FC0809110048823C9F14CEDF8
:100E800050E06EE070E08AE894E00E94080D609106
:100E90008A0470918B0480918C0490918D040E943F
:100EA000891D709322046093210460918E047091D7
:100EB0008F0480919004909191040E94891D7093F9
:100EC00024046093230420E030E048EC52E4609175
:100ED00096047091970480919804909199040E94CF
:100EE000701E0E94891D709326046093250412C011
:100EF0006EE776E08AE894E00E94D90F20E030E0C7
:100F000046E653E40E94701E0E94891D70932204DD
:100F10006093210480911004811116C087E00E9423
:100F2000B415BC01882777FD8095982F0E94BC1DC1
:100F30002BE23BE64EE25FE30E94701E0E94891D99
:100F4000709326046093250480910E048130D9F5B6
:100F500061E083E10E94331682E390E00E949B09E6
:100F6000C8E3D4E0A12CB12C8091370490E0A816FE
:100F7000B9065CF44BE0BE0188E694E00E94C01321
:100F80002FEFA21AB20A2896EFCF88E694E00E94CB
:100F90001F1587E791E00E949B09C0E0809137040C
:100FA000C81768F48C2F0E94EB05EC2FF0E0EE0FD1
:100FB000FF1FE95DFB4F91838083CF5FEFCF60E040
:100FC00083E10E94331680910C048823D1F0F894B9
:100FD00020910C048091330490913404A091350445
:100FE000B0913604820F911DA11DB11D8093330471
:100FF00090933404A0933504B093360410920C04FB
:10100000789480910F04813009F0D0C0609115046C
:10101000709116044AE050E081E696E00E941E19A5
:1010200063E573E081E696E00E944C186091170436
:10103000709118044AE050E081E696E00E941E1983
:1010400063E573E081E696E00E944C186091190414
:1010500070911A044AE050E081E696E00E941E1961
:1010600063E573E081E696E00E944C1860911B04F2
:1010700070911C044AE050E081E696E00E941E193F
:1010800063E573E081E696E00E944C1860911D04D0
:1010900070911E044AE050E081E696E00E941E191D
:1010A00063E573E081E696E00E944C1860911F04AE
:1010B000709120044AE050E081E696E00E941E19FB
:1010C00063E573E081E696E00E944C18609121048C
:1010D000709122044AE050E081E696E00E941E19D9
:1010E00063E573E081E696E00E944C18609123046A
:1010F000709124044AE050E081E696E00E941E19B7
:1011000063E573E081E696E00E944C186091250447
:10111000709126044AE050E081E696E00E941E1994
:1011200063E573E081E696E00E944C184091330439
:101130005091340460913504709136042AE030E017
:1011400081E696E00E943E1963E573E081E696E051
:101150000E944C1880910E04813069F064E573E0C0
:1011600081E696E00E94691862E370E080E090E01A
:101170000E9495171BC0C0E080913704C81770F714
:10118000EC2FF0E0EE0FFF1FE95DFB4F60817181F6
:101190004AE050E081E696E00E941E1963E573E0A4
:1011A00081E696E00E944C18CF5FE6CF8091100454
:1011B000882371F061E086E00E94331668EC70E0ED
:1011C00080E090E00E94951760E086E00E94331670
:1011D0000E946A010E9466174B015C018C189D08F1
:1011E000AE08BF08D501C4018C599F4FAF4FBF4F08
:1011F000883E9340A105B10558F4F4E8CF2EF3E002
:10120000DF2EE12CF12CC818D908EA08FB0805C02C
:10121000EAE0CE2ED12CE12CF12C80910F0481300C
:10122000E1F46CEB73E081E696E00E944C182AE052
:1012300030E0B501A40181E696E00E94691966ECF0
:1012400073E081E696E00E944C182AE030E0B70196
:10125000A60181E696E00E94691980911004882316
:1012600071F0C701B601DF91CF91FF90EF90DF9051
:10127000CF90BF90AF909F908F900C94951785EF73
:10128000C81681E0D806E104F10420F0C601845FAD
:10129000914002C08AE090E0DF91CF91FF90EF9003
:1012A000DF90CF90BF90AF909F908F900C949B0950
:1012B00065E08BE794E00E94EF116BE774E088E64D
:1012C00094E00C94B51283FF02C098E2892787FD51
:1012D00006C08064909160009093FA0502C08091EE
:1012E000FA0594B7977F94BFF89490916000986145
:1012F000909360008093600078940895EAE7F0E0AE
:10130000908180818F77808383B7817F846083BF62
:10131000F89483B7816083BF85B7806685BF85B742
:101320008F79806485BF7894889583B78E7F83BFDB
:1013300090937A000895DF92EF92FF920F931F939C
:10134000CF93DF938C01EC0128E0E22EF12CC03129
:10135000D10538F19E01D12C2032310538F0D394DB
:1013600089E0D81619F036952795F6CF1092FB052F
:101370008D2D0E9463090E947E098FEF0E946309F0
:10138000C70102C0880F991FDA94E2F7C81BD90B76
:101390002091FB05222319F0C81BD90BD8CF80E080
:1013A00001C081E04091590650915A0660915B0658
:1013B00070915C060C1B1D0B400F511F611D711DB0
:1013C0004093590650935A0660935B0670935C06EF
:1013D000DF91CF911F910F91FF90EF90DF900895D3
:1013E0008091FB058F5F8093FB0508958627682F0A
:1013F00062956827062E669566956025062E669589
:1014000060256770082E892F669507946795902D43
:10141000862706946795902586270895E8982A9848
:101420008EBD0DB407FEFDCF8EB56EBD0DB407FEAB
:10143000FDCF8EB52A9AE89A089560E00C940E0AC2
:1014400088E20E941D0A807521F080E00E941D0A3A
:10145000F7CF0895CF93C82F81E00E941D0A682F0F
:10146000637E6C2B81E8CF910C940E0A22E0660F0C
:10147000771F881F991F2A95D1F729E03DE340E0A7
:1014800050E00E94561F66E0220F331F441F551F75
:101490006A95D1F720930506309306064093070618
:1014A0005093080608958091FE05853021F48091BF
:1014B000FF05882311F080E0089584E08093FE0505
:1014C0000E942A0A81E008959091FE0581E09430FF
:1014D0000CF080E00895882311F080E001C084E0E2
:1014E0000E942A0A84E08093FE050895CF93DF933B
:1014F0002A9A229A2A9A84B18C6284B980E58CBD9A
:101500008DB581608DBD6AEA8FEA0E940E0A8FE276
:101510000E941D0A8A3AB9F765E58FEA0E940E0A11
:101520008FE20E941D0A8535B9F7C8E6D0E0FE01BA
:101530008491882339F03196649180680E940E0A64
:101540002296F5CF6091040680EB0E940E0A8091EE
:10155000050690910606A0910706B0910806BD0108
:101560008827992787E80E940E0A809105069091A6
:101570000606A0910706B0910806692F7A2F8B2FD7
:10158000992788E80E940E0A6091050689E80E9462
:101590000E0A84E08093FE05DF91CF910895CF93EA
:1015A000DF93EC018091FE05843019F0853021F144
:1015B0004DC010920C061092FF05609104068FEF4B
:1015C0009FEF0E94F6099093020680930106D09344
:1015D000FD05C093FC0585E08093FE050E94200A6E
:1015E00060E885EA0E940E0A80E10E942A0A62E011
:1015F0008EE90E940E0A2AC080910C062091FF05F8
:1016000090E0049630E08217930724F08091FF0564
:101610008834E0F084E08093FE050E942A0A8091DD
:101620000C068334B0F48091010690910206892B58
:1016300081F480910B0686FF0FC0909103069F31C5
:1016400059F080910B068F71891731F08FEF9FEF62
:1016500005C081E090E002C080E090E0DF91CF9192
:101660000895CF9340930C06FB0120E030E050E05A
:101670002417350744F4D901A35FB94F91919C9386
:101680002F5F3F4FF5CF86FD04C0807E909103060B
:10169000890F80930B06609104068FEF9FEF0E94E5
:1016A000F609909302068093010690910C068EEF46
:1016B000891B8093FE050E94200A8CE00E942A0A62
:1016C00060E085EA0E940E0A8091FE058330DCF519
:1016D00088E20E941D0A87FDF7CF8091FE0587FFF3
:1016E0001BC090910C068091FE05E091FC05F091E5
:1016F000FD05E90FF11DE80FF11D87FDFA95C38186
:101700006C2F80910106909102060E94F609909339
:101710000206809301060DC08091FE05882329F002
:10172000813031F4C091020604C0C091010601C0AD
:10173000CAEA6C2F80E80E940E0A8091FE058F5F36
:101740008093FE05C1CFCF9108958091FE0585302D
:1017500009F04DC060E485EA0E940E0A84E20E940E
:101760001D0A80930006789488E20E941D0A807505
:10177000D9F38091FF0581110FC0E091FC05F09134
:10178000FD058091FF0591E0980F9093FF059091E2
:101790000406E80FF11D908380E00E941D0AE0918D
:1017A000FC05F091FD059091FF0521E0290F2093A4
:1017B000FF05E90FF11D8083682F8091010690914C
:1017C00002060E94F609909302068093010680911A
:1017D0000C062091FF0590E0049630E082179307F5
:1017E000A4F08091FF05883408F4BECF089588E204
:1017F0000E941D0A83FF09C084E08093FE050E94B9
:101800002A0A60E885EA0C940E0A0895CF92DF92C6
:10181000EF92FF921F93CF93DF93C82F162FD42FF1
:10182000F901AFEFA60FA33028F4B0E0A052BC4FEF
:10183000AC9101C0A0E0B0E020E836E948E950E012
:101840000E94B51F6B017C01212F30E0A4ECB9E0B0
:101850000E949F1FDF019B01AC010E94B51FC60EB5
:10186000D71EE81EF91EC701B6010E94360AD093A2
:1018700004068C2F8F718093030664E170E080E092
:1018800090E00E94951780910306882341F043E081
:1018900050E065EA7BE080E00E94921603C080E0A1
:1018A0000E94B2160E94760AC09309068C2FDF911F
:1018B000CF911F91FF90EF90DF90CF9008958AE035
:1018C00096E00E94CF0A909353068093520620918F
:1018D00052063091530681E02F3F3F4F09F480E0DC
:1018E0000895EF92FF921F93CF93DF931F92CDB78E
:1018F000DEB7182F7B0149830E94530A4981811169
:1019000005C049830E945F0C4981F5CFB701812F43
:101910000F90DF91CF911F91FF90EF900C94310BBE
:10192000CF93C82F0E94640A8823B9F0CC23D1F347
:1019300083B7817FC33021F0C23021F49CE003C023
:1019400094E001C090E0892B83BF83B7816083BF9F
:10195000889583B78E7F83BFE5CFCF91089591E0BF
:10196000811190E0892F0C946B0AEF92FF920F93F4
:101970001F93FC01758B648B208F318F428F538FA7
:10198000E0A2F1A202A313A340E050E060E074E4FF
:1019900044AB55AB66AB77AB1F910F91FF90EF90C7
:1019A0000895FC01778B668B248F358F468F578F78
:1019B00040E050E060E074E440AF51AF62AF73AF1D
:1019C00008958EE480937C0062E070E080E090E017
:1019D0000E94951780917A00806480937A008091AC
:1019E0007A0086FDFCCF809178002091790030E06C
:1019F000322F2227442737FD4095542F282B60E0B3
:101A000070E381E190E00E94781FCA01B901089556
:101A10002F923F924F925F926F927F928F929F92FE
:101A2000AF92BF92CF92DF92EF92FF920F931F93EC
:101A3000CF93DF93CDB7DEB7A8970FB6F894DEBF8C
:101A40000FBECDBF98A78FA37E8F6D8F8A010E9496
:101A5000E10C6D8B7E8B8F8B988F0E9466174B01EC
:101A60005C016FA078A428E5620E711CC801A0E09B
:101A7000B0E0898B9A8BAB8BBC8BAFA1B8A5549689
:101A80008C910E94B415F30191838083BC01882757
:101A900077FD8095982F0E94BC1D6B017C012DEC79
:101AA0003CEC4CE054E40E941D1D87FF0BC011E08C
:101AB00026E636E646EE53E4C701B6010E946C1EE8
:101AC00018160CF010E00E946617681979098A0947
:101AD0009B0929893A894B895C892617370748076A
:101AE000590708F040C00E946617698F7A8F8B8F64
:101AF0009C8F00E010E01A8219824FA158A5405C2B
:101B00005F4F58A34F8F8FA198A58C5B9F4F9C87E9
:101B10008B87AFA1B8A5A85BBF4FBAA3A9A3EFA1BC
:101B2000F8A5E45BFF4FFE87ED872FA138A5205B6A
:101B30003F4F3CA32BA34FA158A54C5A5F4F588B46
:101B40004F878FA198A5865A9F4F9E838D832FA084
:101B500038A49BE5290E311CAFA1B8A5A85ABF4FE8
:101B6000BEA3ADA344C1112309F487CFBCCF0E940B
:101B70006617298D3A8D4B8D5C8D621B730B840B20
:101B8000950B29893A894B895C8962177307840709
:101B9000950708F034C10F5F1F4FEFA1F8A584A58A
:101BA00095A5A6A5B7A580A791A7A2A7B3A7848945
:101BB0000E94B415AFA1B8A595969C938E93949767
:101BC00056968C910E94B4153C01EFA1F8A597A3FD
:101BD00086A324A135A13A872987B901882777FDF3
:101BE0008095982F0E94BC1D6B017C01AFA1B8A508
:101BF000D4968D909D90AD90BC90D797A5019401FF
:101C00000E94B81C20E030E040E85AE30E94701EB9
:101C10009B01AC01C501B4010E94B91C9B01AC0140
:101C2000EFA1F8A564AB75AB86AB97ABC701B60166
:101C30000E94B81C4B015C01AFA1B8A59C966D93A6
:101C40007D938D939C939F97B301882777FD809513
:101C5000982F0E94BC1D6B017C01EFA1F8A540AC40
:101C600051AC62AC73ACA30192010E94B81C20E09D
:101C700030E040E85AE30E94701E9B01AC01C301B2
:101C8000B2010E94B91C9B01AC01AFA1B8A5D896C6
:101C90006D937D938D939C93DB97C701B6010E9452
:101CA000B81C6B017C01EFA1F8A560AB71AB82ABF6
:101CB00093ABA5019401C501B4010E94701E9B0164
:101CC000AC01AF8DB8A16D937D938D939C931397C9
:101CD000EB85FC8560817181828193810E94B91CB2
:101CE000AB85BC856D937D938D939C931397A701D2
:101CF0009601C701B6010E94701E9B01AC01E9A1CB
:101D0000FAA16083718382839383AD85BE856D91D3
:101D10007D918D919C910E94B91CED85FE8560831B
:101D2000718382839383AFA1B8A598964D905D90FF
:101D30006D907C909B97A3019201C501B4010E9414
:101D4000B81CEFA1F8A520A131A142A153A10E9486
:101D5000701E9B01AC01C301B2010E94B91CAFA16E
:101D6000B8A5DC966D937D938D939C93DF97A70127
:101D700096010E94701E9B01AC01EBA1FCA1608347
:101D8000718382839383AF85B8896D917D918D91A5
:101D90009C910E94B91CEF85F889608371838283CE
:101DA0009383D1018C91ED81FE818083ADA1BEA191
:101DB0008D919C91E985FA858E179F070CF0F6C0EE
:101DC00021E0F10120830130110529F4F101808126
:101DD000AD81BE818C93ED81FE819081D1018C918A
:101DE000981729F0E981FA813196FA83E9832981EC
:101DF0003A814D8D5E8D2417350708F4B8CEAD8934
:101E0000BE89BD01882777FD8095982F0E94BC1D53
:101E100020E030E04AE754E40E94211D20E030E059
:101E200040E85AE30E94701E2B013C01EFA1F8A587
:101E3000208D318D428D538D0E94701E4B015C01AF
:101E4000B80180E090E00E94BA1D6B017C012FA0D8
:101E500038A4F4E42F0E311C9B01AC01D1016D912B
:101E60007D918D919C910E94211D0E94D71E9B0106
:101E7000AC01C501B4010E94701E69837A838B8313
:101E80009C83EFA1F8A56487758786879787248D43
:101E9000358D468D578DC301B2010E94701E2B01F6
:101EA0003C010FA118A5045B1F4FA7019601D801A3
:101EB0006D917D918D919C910E94211D0E94D71E54
:101EC0009B01AC01C301B2010E94701E6D837E8331
:101ED0008F839887EFA1F8A5608B718B828B938B92
:101EE000A3019201C501B4010E94701EAFA0B8A465
:101EF000F4E5AF0EB11CD5012D913D914D915C9152
:101F00000E94701EA70196010E94211D6B017C0199
:101F1000EFA1F8A560837183828393832D813E8135
:101F20004F81588569817A818B819C810E94701EC6
:101F30009B01AC01AFA1B8A514966D937D938D93D1
:101F40009C931797C701B6010E94211DEFA1F8A528
:101F50006087718782879387D1011D921D921D92A0
:101F60001C921397F8011082118212821382D501FC
:101F70001D921D921D921C921397A8960FB6F8946D
:101F8000DEBF0FBECDBFDF91CF911F910F91FF90AC
:101F9000EF90DF90CF90BF90AF909F908F907F9009
:101FA0006F905F904F903F902F900895D1011C92B9
:101FB0000ACF2F923F924F925F926F927F928F92B1
:101FC0009F92AF92BF92CF92DF92EF92FF920F93C8
:101FD0001F93CF93DF9300D000D000D0CDB7DEB7F2
:101FE0009E838D837A8369830E94E10C2B013C01DF
:101FF00000E010E08D819E81845B9F4F1C01ED818C
:10200000FE81E85BFF4FFC83EB8389819A8108178F
:10201000190709F455C0ED81FE8186890E94B41527
:10202000ED81FE8197A386A3BC01882777FD80956B
:10203000982F0E94BC1D6B017C01ED81FE8180AC5C
:1020400091ACA2ACB3ACA50194010E94B81C20E0F5
:1020500030E040E85AE30E94701E9B01AC01C501CC
:10206000B4010E94B91C9B01AC01ED81FE8160AFFF
:1020700071AF82AF93AFC701B6010E94B81CED816A
:10208000FE8160AB71AB82AB93AB9B01AC010E9454
:10209000701E9B01AC01EB81FC81608371838283A4
:1020A0009383F10160817181828193810E94B91CC7
:1020B000F10160837183828393830F5F1F4FA5CFEC
:1020C000B80180E090E00E94BA1D9B01AC01F101D3
:1020D00060817181828193810E94211D0E94D71E9F
:1020E0006B017C01B201882777FD8095982F0E94B3
:1020F000BC1D20E030E04AE754E40E94211D20E0AE
:1021000030E040E85AE30E94701EED81FE81248D8C
:10211000358D468D578D0E94701EA70196010E9435
:10212000701EED81FE81608B718B828B938BF10130
:10213000108211821282138226960FB6F894DEBFA7
:102140000FBECDBFDF91CF911F910F91FF90EF9008
:10215000DF90CF90BF90AF909F908F907F906F90C7
:102160005F904F903F902F900895FF920F931F9391
:10217000CF93DF93FC010081C181D281F8948981E2
:10218000F02EF0948F21898378941DE7115029F166
:1021900082E090E00E94BB1788818023B9F3F89415
:1021A0008A818F218A838981802B8983789480EE2C
:1021B00091E00E94BB17F89489818F21898386E47E
:1021C00090E00E94BB178881802311E009F010E0A5
:1021D00078948AE991E00E94BB17812FDF91CF911B
:1021E0001F910F91FF9008951F93CF93DF93FC01F0
:1021F0001081C181D281912F909560FF12C0F89417
:102200008A8189238A838981812B89838AE090E06E
:102210000E94BB178A81812B8A83789487E390E0A0
:1022200011C0F8948A8189238A838981812B8983CB
:1022300081E490E00E94BB178A81812B8A83789485
:1022400085E090E0DF91CF911F910C94BB170F9325
:102250001F93CF93DF93FC011081C181D281F89449
:102260008981812B89838A81012F009580238A832C
:1022700083E090E00E94BB178981802389838AE0F4
:1022800090E00E94BB17C881789485E390E00E949B
:10229000BB171C2381E009F480E0DF91CF911F91EF
:1022A0000F910895CF92DF92EF92FF920F931F93B9
:1022B000CF93DF931F92CDB7DEB76C01E62E08E017
:1022C00010E0FF24F39461E09F2D9E2109F460E06B
:1022D000C60149830E94F410FF0C01501109498185
:1022E0000115110581F7411115C0F894D601119619
:1022F000ED91FC91129791818C9180958923818336
:102300001196ED91FC91129792818C918095892381
:10231000828378940F90DF91CF911F910F91FF905E
:10232000EF90DF90CF900895EF92FF920F931F935D
:10233000CF93DF938C01C8E0D0E0F12CEE24E3943E
:10234000C8010E9427118111FE28EE0C21972097C9
:10235000B9F78F2DDF91CF911F910F91FF90EF90E3
:102360000895CF92DF92FF920F931F93CF93DF9345
:102370001F92CDB7DEB78C01F62E40E065E579837C
:102380000E945211CF2C7981D72E88E0F82EF601C9
:1023900061916F0140E0C8010E945211FA94B9F7AF
:1023A0000F90DF91CF911F910F91FF90DF90CF9011
:1023B000089540E06CEC0C945211FC0113861586D4
:1023C000148627E030E0DF01A20FB31F13961C92A2
:1023D0002115310519F021503109F5CF08951F93CA
:1023E000CF93DF93EC01162F60E0812F0E94FA1546
:1023F000612F70E0FB01E156FE4FE491E883FB01A1
:10240000ED54FE4FE491F0E0EE0FFF1FE953FE4F55
:10241000859194919A838983CE01DF91CF911F9109
:102420000C94DD11AF92BF92CF92DF92EF92FF92A8
:102430000F931F93CF93DF931F92CDB7DEB75C014D
:10244000D62EE72EFC01858581115DC0C5010E9455
:10245000B510811105C0F5011386158614866CC070
:1024600040E060EFC5010E94521101E0F12CC12C47
:1024700011E0C5010E942711682FC50169830E94E0
:1024800027116981613019F48130B9F433C02F2DDF
:1024900030E068131BC0F5018385181730F4E20F94
:1024A000F31F8381802349F402C0181731F060E0E4
:1024B000193058F4F501148708C0F501EF0DF11D2E
:1024C0008381802B838361E009C0C12EF501E20F77
:1024D000F31F8381902F909589238383C5010E94E8
:1024E000F4101F5F000F11F4F39401E0F7E0FF1503
:1024F00008F0BFCF113438F0F501C386C11009C010
:1025000081E0858706C0F50113861586148680E074
:1025100013C0F50183818823B1F3ED2DFE2D80E0FA
:1025200090E0D501A80FB91F13962C912193019625
:1025300088309105B1F781E00F90DF91CF911F9125
:102540000F91FF90EF90DF90CF90BF90AF900895E4
:10255000DC0180E0615038F0ED91E827F0E0E557CC
:10256000FF4F8491F7CF08950895FC0184EB92E129
:10257000928B818B768365831482108289E08183BC
:1025800081E0828383830895FC0184810895CF9341
:10259000DF93EB0167E0CE010E94A81291E02F814A
:1025A000821390E0892FDF91CF910895CF92DF922F
:1025B000EF92FF920F931F93CF93DF9300D0CDB78D
:1025C000DEB76C01F42EE52EFC01858196816983CE
:1025D0007A830E94B51069817A81882311F1F6010E
:1025E000858196810E94B11140E06EEBF6018581F4
:1025F00096810E9452110F2D1E2D89E0F82EF601B2
:10260000858196810E949411F80181938F01FA943B
:10261000B1F7F601858196810E94B51091E0813075
:1026200009F090E0892F0F900F90DF91CF911F91CB
:102630000F91FF90EF90DF90CF900895CF93DF93AD
:10264000EA010E94D612882351F068E0CE010E9470
:10265000A81291E02885821390E0892F01C080E0C4
:10266000DF91CF910895EF92FF920F931F93CF9335
:10267000DF93EC018B017A018D819E810E94B51060
:10268000B8018D819E810E94B11140E06EE48D8180
:102690009E810E94521140E0F70162818D819E81EE
:1026A0000E94521140E0F70163818D819E810E945A
:1026B0005211F8018081803139F040E0F7016481E6
:1026C0008D819E810E9452118D819E810E94B51044
:1026D000B8018D819E810E94B111488168E48D818D
:1026E0009E810E94521164E170E080E090E00E94BF
:1026F00095178881882331F06AE070E080E090E0EF
:102700000E9495178D819E81DF91CF911F910F912E
:10271000FF90EF900C94B510EF92FF921F93CF9320
:10272000DF9300D0CDB7DEB77C01FC0185819681B7
:1027300069837A830E94B51069817A81F701858166
:1027400096810E94B11140E064EBF701858196818A
:102750000E945211F701858196810E942711182F3E
:10276000F701858196810E94B51081E0111180E00A
:102770000F900F90DF91CF911F91FF90EF900895F0
:10278000EF92FF920F931F93CF93DF93CDB7DEB7F6
:102790002A970FB6F894DEBF0FBECDBF7C018B0128
:1027A000242FAE014F5F5F4F2A870E941E132A8598
:1027B0008823D1F0F80180818031C1F02B3041F0C5
:1027C0002C3021F02A3031F48FE305C08FE703C0AD
:1027D0008FE501C08FE18D83AE014F5F5F4FB80180
:1027E000C7010E94331302C080E001C081E02A9635
:1027F0000FB6F894DEBF0FBECDBFDF91CF911F9112
:102800000F91FF90EF900895CF93DF93CDB7DEB790
:1028100029970FB6F894DEBF0FBECDBFFB01208114
:102820002031D1F0AE014F5F5F4F0E941E1388230D
:1028300079F08D818F3351F020F48F3149F489E0A4
:102840000CC08F3539F08F3739F002C08AE005C0EF
:1028500080E003C08BE001C08CE029960FB6F894AD
:10286000DEBF0FBECDBFDF91CF910895EF92FF92F3
:102870000F931F93CF93DF93CDB7DEB761970FB65A
:10288000F894DEBF0FBECDBF8C01FC01858196811F
:102890000E94DD11F8011482FF24F394BE01665FEB
:1028A0007F4FF801858196810E9412128823C9F119
:1028B000BE01665F7F4FC8010E94C712882371F373
:1028C000F8018081811108C0BE01665F7F4FC80199
:1028D0000E948C13811122C0AE014F5F5F4FBE0179
:1028E000665F7F4FC8010E94D612F801E180BE01E9
:1028F000665F7F4FC8010E9404148E1518F4F8011A
:10290000818106C0BE01665F7F4FC8010E9404142A
:10291000F801818384818F5F8483C0CFF801F082C6
:10292000DBCF61960FB6F894DEBF0FBECDBFDF914F
:10293000CF911F910F91FF90EF900895FC0162835A
:102940000895CF93DF93CDB7DEB729970FB6F894EC
:10295000DEBF0FBECDBFAE014F5F5F4F0E94D612EC
:1029600081E09981911101C080E029960FB6F89419
:10297000DEBF0FBECDBFDF91CF9108958F929F92A2
:10298000AF92BF92CF92DF92EF92FF920F931F937D
:10299000CF93DF93EC018A016950633048F4E62F4E
:1029A000F0E0EE0FFF1FED51FC4F8080918004C0DE
:1029B0009EEE892E92E0992E0115110501F18B8171
:1029C0008823E9F0888181111AC00E9466176B0183
:1029D0007C01AA2497FCA094BA2CB801CE010E94D5
:1029E000A11481111FC00E946617681979098A090C
:1029F0009B096C157D058E059F05A0F4EECFB401F3
:102A0000882777FD8095982FDF91CF911F910F91A7
:102A1000FF90EF90DF90CF90BF90AF909F908F90FE
:102A20000C949517DF91CF911F910F91FF90EF902C
:102A3000DF90CF90BF90AF909F908F900895CF93ED
:102A4000DF93EC018D819E810E94B5108D819E8166
:102A50000E94D911488164E48D819E810E945211A7
:102A60008A81882341F040E050E06981CE01DF9106
:102A7000CF910C94BE14DF91CF910895FA0120817B
:102A800048E0249F90011124818190E0982F8827AD
:102A9000990F990F990F282B392BDB018C918031DD
:102AA000C1F4678170E08681AB01481B5109CA01FE
:102AB0009695982F8827979587950E94421F605179
:102AC0007109207F53E0220F331F5A95E1F7260F3B
:102AD000371FC9010895EF92FF920F931F93CF9371
:102AE000DF93CDB7DEB729970FB6F894DEBF0FBEE0
:102AF000CDBF8C017B01AE014F5F5F4F0E941E1363
:102B0000882341F0AE014F5F5F4FB701C8010E94BB
:102B10003E1502C080E894EE29960FB6F894DEBF09
:102B20000FBECDBFDF91CF911F910F91FF90EF901E
:102B30000895813824EE920774F0BC01882777FD50
:102B40008095982F0E94BC1D20E030E040E05CE3BF
:102B50000E94701E089560E070E08EEF92EC089580
:102B60000E946B150C9499158E3008F08E5087706A
:102B70002091110190E4299F90011124822B8093D0
:102B80007C0080917A00806480937A0080917A0042
:102B900086FDFCCF809178002091790090E0922B07
:102BA0000895833081F028F4813099F08230A1F0CB
:102BB00008958630A9F08730B9F08430D1F480913F
:102BC00080008F7D03C0809180008F77809380008C
:102BD000089584B58F7702C084B58F7D84BD089534
:102BE0008091B0008F7703C08091B0008F7D80937B
:102BF000B0000895CF93DF9390E0FC01E156FE4FC3
:102C00002491FC01ED54FE4F8491882349F190E01A
:102C1000880F991FFC01E552FE4FA591B4918F5288
:102C20009E4FFC01C591D4919FB7611108C0F894E3
:102C30008C91209582238C93888182230AC06230F4
:102C400051F4F8948C91322F309583238C938881A2
:102C5000822B888304C0F8948C91822B8C939FBF25
:102C6000DF91CF9108950F931F93CF93DF931F921E
:102C7000CDB7DEB7282F30E0F901E557FE4F84913C
:102C8000F901E156FE4F1491F901ED54FE4F049104
:102C90000023C9F0882321F069830E94D11569813E
:102CA000E02FF0E0EE0FFF1FEF52FE4FA591B49121
:102CB0009FB7F8948C91611103C01095812301C0D6
:102CC000812B8C939FBF0F90DF91CF911F910F911C
:102CD0000895CF93DF93282F30E0F901E557FE4F99
:102CE0008491F901E156FE4FD491F901ED54FE4F64
:102CF000C491CC2391F081110E94D115EC2FF0E00A
:102D0000EE0FFF1FE953FE4FA591B4912C912D2397
:102D100081E090E021F480E002C080E090E0DF916B
:102D2000CF9108958230E8F4E82FF0E0EE0FFF1F16
:102D3000EC5AF94F71836083813041F080916900D2
:102D40008C7F842B80936900E89A089580916900B4
:102D5000440F551F440F551F837F842B80936900B8
:102D6000E99A0895823068F4813011F0E89801C042
:102D7000E998E82FF0E0EE0FFF1FEC5AF94F1182AF
:102D8000108208951F920F920FB60F9211242F9365
:102D90003F934F935F936F937F938F939F93AF93E3
:102DA000BF93EF93FF938091540690915506892B22
:102DB00029F0E0915406F09155060995FF91EF91A5
:102DC000BF91AF919F918F917F916F915F914F9143
:102DD0003F912F910F900FBE0F901F9018951F924B
:102DE0000F920FB60F9211242F933F934F935F933F
:102DF0006F937F938F939F93AF93BF93EF93FF93C3
:102E00008091560690915706892B29F0E09156063D
:102E1000F09157060995FF91EF91BF91AF919F9166
:102E20008F917F916F915F914F913F912F910F9073
:102E30000FBE0F901F9018951F920F920FB60F9212
:102E400011242F933F938F939F93AF93BF938091C0
:102E5000590690915A06A0915B06B0915C0630919C
:102E6000580623E0230F2D3720F40196A11DB11D34
:102E700005C026E8230F0296A11DB11D2093580618
:102E80008093590690935A06A0935B06B0935C0614
:102E900080915D0690915E06A0915F06B0916006FC
:102EA0000196A11DB11D80935D0690935E06A093CF
:102EB0005F06B0936006BF91AF919F918F913F9154
:102EC0002F910F900FBE0F901F9018952FB7F89469
:102ED0006091590670915A0680915B0690915C064C
:102EE0002FBF08953FB7F89480915D0690915E06DC
:102EF000A0915F06B091600626B5A89B05C02F3F44
:102F000019F00196A11DB11D3FBF6627782F892FAB
:102F10009A2F620F711D811D911D42E0660F771F70
:102F2000881F991F4A95D1F70895CF92DF92EF92AB
:102F3000FF92CF93DF936B017C010E947217EB012C
:102F4000C114D104E104F10479F00E9472176C1BE2
:102F50007D0B683E7340A0F381E0C81AD108E108F8
:102F6000F108C851DC4FECCFDF91CF91FF90EF908B
:102F7000DF90CF9008950197009739F0880F991F3F
:102F8000880F991F02970197F1F70895789484B5F7
:102F9000826084BD84B5816084BD85B5826085BD55
:102FA00085B5816085BDEEE6F0E08081816080833B
:102FB000E1E8F0E01082808182608083808181601E
:102FC0008083E0E8F0E0808181608083E1EBF0E0E5
:102FD000808184608083E0EBF0E080818160808389
:102FE000EAE7F0E080818460808380818260808372
:102FF0008081816080838081806880831092C1009D
:1030000008950E94C6170E94BA01C6E4DBE10E943F
:103010001E062097E1F30E94461BF9CFCF92DF9264
:10302000EF92FF920F931F93CF93DF936C017A017E
:10303000EB01E60EF71E00E010E0CE15DF0561F0B3
:103040006991D601ED91FC910190F081E02DC601CE
:103050000995080F191FF1CFC801DF91CF911F917A
:103060000F91FF90EF90DF90CF900895611571055B
:1030700081F0DB010D900020E9F7AD0141505109CD
:10308000461B570BDC01ED91FC910280F381E02D92
:10309000099480E090E008950C943618DC01ED91DD
:1030A000FC910190F081E02D09940F931F93CF9331
:1030B000DF93EC016DE00E944E188C016AE0CE01B6
:1030C0000E944E18800F911FDF91CF911F910F9199
:1030D00008950F931F93CF93DF93EC010E9436184E
:1030E0008C01CE010E945518800F911FDF91CF9166
:1030F0001F910F9108958F929F92AF92BF92CF929E
:10310000DF92EF92FF920F931F93CF93DF93CDB790
:10311000DEB7A1970FB6F894DEBF0FBECDBF7C011E
:10312000C42EE52FCB01D22E19A221E02D1510F0CF
:103130002AE0D22E8E010F5D1F4F8D2C912CA12CD9
:10314000B12C6C2D7E2FA50194010E94561F8C2D51
:10315000D29E80191124015011098A3014F4805D27
:1031600001C0895CF80180832115310541055105B5
:1031700021F0C22EE32FCA01E4CFB801C7010E949B
:103180003618A1960FB6F894DEBF0FBECDBFDF9103
:10319000CF911F910F91FF90EF90DF90CF90BF9054
:1031A000AF909F908F900895CF92DF92EF92FF9211
:1031B0000F931F93CF93DF93EC016A017B012115DD
:1031C000310579F4E881F9810190F081E02D642FD7
:1031D000DF91CF911F910F91FF90EF90DF90CF90F3
:1031E00009942A303105E9F477FF1AC06DE20E9494
:1031F0004E188C0144275527BA014C195D096E09F8
:103200007F092AE0CE010E947B18800F911FDF9179
:10321000CF911F910F91FF90EF90DF90CF90089585
:103220002AE0B701A601CE01DF91CF911F910F9146
:10323000FF90EF90DF90CF900C947B189A01AB0138
:10324000662757FD6095762F0C94D4180F931F9323
:10325000CF93DF93EC019A01AB01662757FD609590
:10326000762F0E94D4188C01CE010E945518800F31
:10327000911FDF91CF911F910F9108952115310575
:1032800041F4DC01ED91FC910190F081E02D642F7F
:1032900009940C947B189A01462F50E060E070E08E
:1032A0000C943E190F931F93CF93DF93EC019A0177
:1032B000462F50E060E070E00E943E198C01CE0184
:1032C0000E945518800F911FDF91CF911F910F9190
:1032D00008950F931F93CF93DF93EC010E943E1943
:1032E0008C01CE010E945518800F911FDF91CF9164
:1032F0001F910F9108954F925F926F927F928F92DC
:103300009F92AF92BF92CF92DF92EF92FF920F9374
:103310001F93CF93DF93EC016A017B01B22E9A01D8
:10332000AB01C701B6010E94151F882319F069EE91
:1033300073E027C026013701E89477F82FEF3FEFBD
:103340004FE75FE7C301B2010E94151F81110DC055
:103350002FEF3FEF4FE75FE7C301B2010E941D1D52
:1033600018161CF46DEE73E00CC02FEF3FEF4FE723
:103370005FE4C701B6010E946C1E1816ACF461EF41
:1033800073E0CE01DF91CF911F910F91FF90EF90ED
:10339000DF90CF90BF90AF909F908F907F906F9075
:1033A0005F904F900C9436182FEF3FEF4FE75FEC94
:1033B000C701B6010E941D1D87FDE1CF20E030E06E
:1033C000A901C701B6010E941D1D87FF0AC06DE259
:1033D000CE010E944E188C01F7FAF094F7F8F094A1
:1033E00002C000E010E0A12C60E070E080E09FE30C
:1033F000AB1441F020E030E040E251E40E94211D96
:10340000A394F6CF9B01AC01C701B6010E94B91C81
:103410006B017C010E948E1D2B013C010E94BA1D94
:103420009B01AC01C701B6010E94B81C6B017C0175
:103430002AE0B301A201CE010E947B18080F191FD8
:10344000BB2039F065EF73E0CE010E943618080FFB
:10345000191F7B2C772041F120E030E040E251E45D
:10346000C701B6010E94701E6B017C010E94891D7C
:103470004B01AA2497FCA094BA2C2AE030E0B501B5
:10348000A401CE010E94D418080F191FC501B40170
:103490000E94BC1D9B01AC01C701B6010E94B81C73
:1034A0006B017C017A94D6CFC801DF91CF911F9137
:1034B0000F91FF90EF90DF90CF90BF90AF909F90D3
:1034C0008F907F906F905F904F9008950C947B1930
:1034D0000F931F93CF93DF93EC010E947B198C0114
:1034E000CE010E945518800F911FDF91CF911F913F
:1034F0000F910895FC0124853585F901E05CFF4FAB
:1035000080819181329620813181821B930B8F7350
:1035100099270895FC0184859585FC01E05CFF4FA7
:10352000408151813296208131814217530741F009
:103530000190F081E02DE80FF91F808190E008955F
:103540008FEF9FEF0895FC0184859585FC01E05C79
:10355000FF4F4081518132962081318142175307BC
:1035600079F0A081B181A80FB91F8C9120813181A0
:103570002F5F3F4F2F7333273183208390E00895CF
:103580008FEF9FEF0895FC0181A1882329F0A48982
:10359000B5898C9186FFFBCF11A20895CF93DF935D
:1035A000FC0126853785D901A05CBF4F8D919C9188
:1035B000119701968F739927E901CE5BDF4F488100
:1035C000598184179507D9F30D90BC91A02DA20FB6
:1035D000B31F6C93A685B785A05CBF4F11969C93D3
:1035E0008E93A689B7892C9181E090E0078C02C068
:1035F000880F991F0A94E2F7282B2C9381E081A36E
:103600000488F589E02D80818064808381E090E0EA
:10361000DF91CF91089508951F920F920FB60F92E8
:1036200011242F933F934F938F939F93EF93FF9387
:103630008091C00082FD1CC04091C60080910707A8
:103640009091080701968F7399272091090730916F
:103650000A078217930771F0E0910707F0910807B6
:10366000E953F94F4083909308078093070702C0FE
:103670008091C600FF91EF919F918F914F913F9163
:103680002F910F900FBE0F901F90189581E696E036
:103690000E947A1A892B11F00C940B1B08951F922B
:1036A0000F920FB60F9211242F933F938F939F93F6
:1036B000EF93FF932091C3063091C4068091C50615
:1036C0009091C6062817390731F48091C1008F7D8B
:1036D0008093C10014C0E091C506F091C606ED5775
:1036E000F94F20818091C5069091C60601968F738F
:1036F00099279093C6068093C5062093C600FF9134
:10370000EF919F918F913F912F910F900FBE0F904E
:103710001F901895CF92DF92EF92FF92CF93DF9395
:10372000EC016A017B01411581EE580761057105C5
:10373000F9F0EC89FD8981E090E008A002C0880FD3
:10374000991F0A94E2F7808360E079E08DE390E0CE
:10375000A70196010E94561F2150310941095109C4
:103760005695479537952795211580E1380798F0AC
:10377000EC89FD89108260E874E88EE190E0A70191
:1037800096010E94561F2150310941095109569551
:10379000479537952795E889F9893083EA89FB8928
:1037A000208319A2EE89FF89408181E090E09C018D
:1037B0000C8C02C0220F331F0A94E2F7422B408385
:1037C000EE89FF8940819C010D8C02C0220F331FBE
:1037D0000A94E2F7422B4083EE89FF8940819C01E5
:1037E0000E8C02C0220F331F0A94E2F7422B408353
:1037F000EE89FF8920810F8C02C0880F991F0A94DF
:10380000E2F7809582238083DF91CF91FF90EF9044
:10381000DF90CF900895CF93DF93FC018685978545
:10382000DC01A05CBF4FEC01CE5BDF4F4D915C91A2
:1038300011972881398142175307C1F7A689B789A3
:103840004C9181E090E09C01048C02C0220F331F58
:103850000A94E2F7209524232C93A689B7894C91EA
:103860009C01058C02C0220F331F0A94E2F72095B9
:1038700024232C93A689B7894C919C01068C02C005
:10388000220F331F0A94E2F7209524232C93A68954
:10389000B7892C91078C02C0880F991F0A94E2F710
:1038A000809582238C9384859585FC01EE5BFF4F88
:1038B00020813181329731832083DF91CF91089528
:1038C00081E00895109264061092630688EE93E0FA
:1038D000A0E0B0E08093650690936606A09367062B
:1038E000B09368068BEF93E0909362068093610635
:1038F00087EC96E090936E0680936D0683E896E0E1
:103900009093700680936F0685EC90E0909372061A
:103910008093710684EC90E0909374068093730614
:1039200080EC90E0909376068093750681EC90E0B1
:10393000909378068093770682EC90E090937A06D5
:103940008093790686EC90E090937C0680937B06CA
:1039500084E080937D0683E080937E0687E08093F9
:103960007F0685E08093800681E08093810608953C
:103970005058BB27AA270ED075C166D130F06BD145
:1039800020F031F49F3F11F41EF45BC10EF4E0957A
:10399000E7FB51C1E92F77D180F3BA1762077307AC
:1039A0008407950718F071F49EF58FC10EF4E09529
:1039B0000B2EBA2FA02D0B01B90190010C01CA01E9
:1039C000A0011124FF27591B99F0593F50F4503E94
:1039D00068F11A16F040A22F232F342F4427585F86
:1039E000F3CF469537952795A795F0405395C9F79E
:1039F0007EF41F16BA0B620B730B840BBAF0915056
:103A0000A1F0FF0FBB1F661F771F881FC2F70EC0F4
:103A1000BA0F621F731F841F48F4879577956795C7
:103A2000B795F7959E3F08F0B3CF9395880F08F0B0
:103A30009927EE0F979587950895D9D008F481E0DE
:103A400008950CD00FC107D140F0FED030F021F422
:103A50005F3F19F0F0C0511139C1F3C014D198F390
:103A60009923C9F35523B1F3951B550BBB27AA27FF
:103A700062177307840738F09F5F5F4F220F331F71
:103A8000441FAA1FA9F333D00E2E3AF0E0E830D03D
:103A900091505040E695001CCAF729D0FE2F27D040
:103AA000660F771F881FBB1F261737074807AB070E
:103AB000B0E809F0BB0B802DBF01FF2793585F4F83
:103AC0002AF09E3F510568F0B6C000C15F3FECF39D
:103AD000983EDCF3869577956795B795F7959F5F48
:103AE000C9F7880F911D9695879597F90895E1E09C
:103AF000660F771F881FBB1F621773078407BA07FB
:103B000020F0621B730B840BBA0BEE1F88F7E09555
:103B1000089504D06894B111D9C00895BCD088F03C
:103B20009F5790F0B92F9927B751A0F0D1F0660FA9
:103B3000771F881F991F1AF0BA95C9F712C0B130C4
:103B400081F0C3D0B1E00895C0C0672F782F8827D7
:103B5000B85F39F0B93FCCF3869577956795B39503
:103B6000D9F73EF490958095709561957F4F8F4F72
:103B70009F4F0895E89409C097FB3EF49095809577
:103B8000709561957F4F8F4F9F4F9923A9F0F92F23
:103B900096E9BB279395F695879577956795B795A1
:103BA000F111F8CFFAF4BB0F11F460FF1BC06F5F87
:103BB0007F4F8F4F9F4F16C0882311F096E911C099
:103BC000772321F09EE8872F762F05C0662371F0BA
:103BD00096E8862F70E060E02AF09A95660F771FCE
:103BE000881FDAF7880F9695879597F90895990FAA
:103BF0000008550FAA0BE0E8FEEF16161706E807B7
:103C0000F907C0F012161306E407F50798F0621BD7
:103C1000730B840B950B39F40A2661F0232B242BAC
:103C2000252B21F408950A2609F4A140A6958FEFCB
:103C3000811D811D089597F99F6780E870E060E01D
:103C400008959FEF80EC089500240A941616170635
:103C500018060906089500240A941216130614067D
:103C600005060895092E0394000C11F4882352F0E0
:103C7000BB0F40F4BF2B11F460FF04C06F5F7F4F98
:103C80008F4F9F4F089557FD9058440F551F59F07F
:103C90005F3F71F04795880F97FB991F61F09F3F39
:103CA00079F087950895121613061406551FF2CF62
:103CB0004695F1DF08C0161617061806991FF1CFB2
:103CC00086957105610508940895E894BB276627D9
:103CD0007727CB0197F908958ADF08F48FEF0895CD
:103CE0000BD0C0CFB1DF28F0B6DF18F0952309F074
:103CF000A2CFA7CF1124EACFC6DFA0F3959FD1F3BF
:103D0000950F50E0551F629FF001729FBB27F00D89
:103D1000B11D639FAA27F00DB11DAA1F649F6627DE
:103D2000B00DA11D661F829F2227B00DA11D621F2D
:103D3000739FB00DA11D621F839FA00D611D221FE7
:103D4000749F3327A00D611D231F849F600D211DCB
:103D5000822F762F6A2F11249F5750408AF0E1F06E
:103D600088234AF0EE0FFF1FBB1F661F771F881FB7
:103D700091505040A9F79E3F510570F05CCFA6CFFF
:103D80005F3FECF3983EDCF3869577956795B795A2
:103D9000F795E7959F5FC1F7FE2B880F911D9695CC
:103DA000879597F9089511F40EF44BCF42C073DF55
:103DB000D0F39923D9F3CEF39F57550B87FF47D004
:103DC0000024A0E640EA900180585695979528F483
:103DD000805C660F771F881F20F02617370748077B
:103DE00030F4621B730B840B202931294A2BA695D2
:103DF00017940794202531254A2758F7660F771F17
:103E0000881F20F026173707480730F4620B730B22
:103E1000840B200D311D411DA09581F7B901842F20
:103E20009158880F969587950895E1DE880B990B38
:103E300008959F3F31F0915020F4879577956795CD
:103E4000B795880F911D9695879597F9089591508C
:103E50005040660F771F881FD2F70895AA1BBB1B1F
:103E600051E107C0AA1FBB1FA617B70710F0A61B7A
:103E7000B70B881F991F5A95A9F780959095BC019B
:103E8000CD01089597FB072E16F4009407D077FD17
:103E900009D00E942E1F07FC05D03EF49095819515
:103EA0009F4F0895709561957F4F0895A1E21A2E56
:103EB000AA1BBB1BFD010DC0AA1FBB1FEE1FFF1FCE
:103EC000A217B307E407F50720F0A21BB30BE40B1E
:103ED000F50B661F771F881F991F1A9469F7609565
:103EE0007095809590959B01AC01BD01CF0108951F
:103EF000052E97FB1EF400940E948F1F57FD07D0DC
:103F00000E94561F07FC03D04EF40C948F1F50954F
:103F10004095309521953F4F4F4F5F4F08959095B5
:103F20008095709561957F4F8F4F9F4F08950E94A8
:103F30009F1F332312F48A1B9B0B0C94B01FA29F6C
:103F4000B001B39FC001A39F700D811D1124911D6D
:103F5000B29F700D811D1124911D08950E949F1F15
:103F6000B7FF0895821B930B08950E949F1FA59F82
:103F7000900DB49F900DA49F800D911D1124089564
:103F8000EE0FFF1F0590F491E02D0994F894FFCFF8
:103F90000A0000714300007143CDCC704333B3700D
:103FA000430172617370696D6F6E202D20656D6FB6
:103FB0006E54782056332E342044697363726574CE
:103FC000652053616D706C696E6720560020524603
:103FD0004D36394357004F70656E456E657267798F
:103FE0004D6F6E69746F722E6F726700504F53542D
:103FF0002E2E2E2E2E77616974203130730043549B
:104000002031204943616C20004354203220494331
:10401000616C200043542033204943616C200043ED
:10402000542034204943616C2000524D5320566F78
:104030006C74616765206F6E2041432D41432020E1
:1040400069733A207E0041432D41432064657465C5
:1040500063746564202D205265616C20506F776514
:1040600072206D65617375726520656E61626C6545
:104070006400617373756D696E6720707772206676
:10408000726F6D2041432D414320286A756D706524
:104090007220636C6F7365642900555341206D6F06
:1040A000646520616374697665005663616C2031D4
:1040B0003A20005663616C20323A20005663616CEE
:1040C00020333A20005663616C20343A2000506857
:1040D000617365205368696674313A2000506861E5
:1040E0007365205368696674323A200050686173C2
:1040F00065205368696674333A20005068617365BF
:10410000205368696674343A200041432D414320AE
:104110004E4F54206465746563746564202D20419E
:1041200070706172656E7420507772206D65617376
:1041300075726520656E61626C65640041737375AC
:104140006D696E672056524D533A20004173737566
:104150006D696E6720706F7765722066726F6D2073
:1041600062617474202F20355620555342202D2033
:10417000706F776572207361766520656E61626C21
:104180006564004E4F204354277320646574656353
:1041900074656400435420312064657465637465FC
:1041A0006400435420322064657465637465640060
:1041B000435420332064657465637465640043541C
:1041C00020342064657465637465640044657465B7
:1041D000637465642054656D702053656E736F72EF
:1041E000733A2020004E6F2074656D7065726174A3
:1041F0007572652073656E736F72004E6F64653AF9
:10420000200020467265713A20003433334D687ABD
:1042100000204E6574776F726B3A20004354312052
:1042200043543220435433204354342056524D5388
:104230002F424154542050554C5345002054656D35
:10424000706572617475726520312D0072756E74BF
:10425000696D653A2000736C65657020666F722029
:10426000286D696C697365636F6E6473293A200009
:104270002B565A5E00BC0077016E616E00696E6657
:10428000006F7666002E0000000000CE1A0E187A2D
:084290001AA31A8A1AC31A00CE
:00000001FF
