:100000000C94F5000C9441160C946E160C941D0182
:100010000C941D010C941D010C9446010C941D01BF
:100020000C941D010C941D010C941D010C941D01D8
:100030000C941D010C941D010C941D010C941D01C8
:100040000C949B160C941D010C948B1A0C94CE1AD4
:100050000C941D010C941D010C941D010C941D01A8
:100060000C941D010C941D01010402000302048A7A
:10007000050506C30B2019421E2C25802E882F2D26
:10008000370038003C8F3D106F2000005EBCE261FD
:100090003FDD83C29C7E20A3FD1F419DC3217FFCC9
:1000A000A2401E5F01E3BD3E6082DC237D9FC14212
:1000B0001CFEA0E1BF5D0380DE3C62BEE0025CDFAF
:1000C00081633D7C22C09E1D43A1FF4618FAA427F0
:1000D000799BC584DA3866E5BB5907DB856739BA91
:1000E000E406581947A5FB7826C49A653BD98704CE
:1000F0005AB8E6A7F91B45C6987A24F8A6441A9977
:10010000C7257B3A6486D85B05E7B98CD2306EEDA3
:10011000B3510F4E10F2AC2F7193CD114FADF37060
:100120002ECC92D38D6F31B2EC0E50AFF1134DCE79
:1001300090722C6D33D18F0C52B0EE326C8ED05346
:100140000DEFB1F0AE4C1291CF2D73CA947628AB5F
:10015000F517490856B4EA6937D58B5709EBB53618
:10016000688AD495CB2977F4AA4816E9B7550B8845
:10017000D6346A2B7597C94A14F6A8742AC89615FE
:100180004BA9F7B6E80A54D7896B35000000070081
:10019000020100000304060000000000000000014E
:1001A000020408102040800102040810200102040B
:1001B00008102004040404040404040202020202DD
:1001C00002030303030303000000002300260029A9
:1001D0000000000000250028002B00000000002483
:1001E0000027002A0000D708E11B11241FBECFEF13
:1001F000D8E0DEBFCDBF13E0A0E0B1E0EEE8FEE363
:1002000002C005900D92AC3AB107D9F726E0ACEAEE
:10021000B3E001C01D92AF3AB207E1F711E0CAEEB8
:10022000D1E004C02297FE010E94411FC63ED107C3
:10023000C9F70E9480170C94451F0C9400000F937F
:100240001F930E94E5160091AC031091AD0320911D
:10025000AE033091AF03601B710B820B930B6F36B3
:1002600071058105910528F08091B0038F5F80931F
:10027000B0030E94E5166093AC037093AD038093C6
:10028000AE039093AF031F910F9108951F920F92A9
:100290000FB60F9211242F933F934F935F936F9359
:1002A0007F938F939F93AF93BF93EF93FF930E949E
:1002B0006F09FF91EF91BF91AF919F918F917F91C6
:1002C0006F915F914F913F912F910F900FBE0F90C3
:1002D0001F9018958FEF0E942E0C42E269EB73E09D
:1002E00080E00E94F00B82E00E940F0C8091B4032A
:1002F000811102C00C942E0C0895CF92DF92EF92E0
:10030000FF920F931F93CF93DF93EB0100E010E078
:10031000C12CD12C76010C171D077CF480E00E94C3
:100320003315DC01B2509D010E94161FC60ED71E68
:10033000E81EF91E0F5F1F4FEECFC701B6010E94E6
:10034000391D6B017C01BE01882777FD8095982FB0
:100350000E943B1D9B01AC01C701B6010E94A01C7D
:10036000DF91CF911F910F91FF90EF90DF90CF9091
:100370000C94561ECF92DF92EF92FF920F931F9331
:10038000CF93DF9361E086E00E94791561E083E11D
:100390000E94791562E083E00E9479151092D703DC
:1003A0001092D8031092D9031092DA0361E086E02C
:1003B0000E94B21540E855E260E070E085E096E00A
:1003C0000E94091B66E071E085E096E00E94CB1771
:1003D00022E030E043E353E363E170E485E096E03C
:1003E0000E94E51961E371E085E096E00E94E8175C
:1003F0006AE371E085E096E00E94E81760E571E04D
:1004000085E096E00E94E81762E088E00E94791596
:1004100062E089E00E94791588E00E94E815892B46
:1004200029F48091000181508093000189E00E94AD
:10043000E815892B19F481E080932D0480912D0417
:10044000813061F480E090E0A2E0B3E480930101A8
:1004500090930201A0930301B09304016AE070E05D
:1004600080E090E00E94141720E436E042ED61E065
:10047000809100010E94850BCAE0D0E0D093BA03BE
:10048000C093B90342E269EB73E080E00E94F00B95
:1004900064E670E080E090E00E941417219770F706
:1004A00082E00E940F0C1092BA031092B90381E00F
:1004B0000E943315181619064CF481E08093B80396
:1004C0008091B1038F5F8093B10302C01092B80393
:1004D00082E00E943315181619064CF481E08093CF
:1004E000B7038091B1038F5F8093B10302C0109274
:1004F000B70383E00E943315181619064CF481E007
:100500008093B6038091B1038F5F8093B10302C0E3
:100510001092B60384E00E943315181619064CF4A5
:1005200081E08093B5038091B1038F5F8093B10325
:1005300002C01092B5038091B103811103C081E024
:100540008093B80380E197E20E941A0960E086E098
:100550000E94B21564EF76E080E090E00E947D0199
:1005600022E538EB4EE55FE30E94EF1D6B017C0155
:1005700020E030E044EB52E40E94EB1D181624F416
:1005800081E08093B40302C01092B4038091B4035D
:100590008823D1F0CAE0D0E061E086E00E94B21585
:1005A00068EC70E080E090E00E94141760E086E064
:1005B0000E94B2156CE271E080E090E00E94141796
:1005C0002197209749F714C068EE73E080E090E02F
:1005D0000E94141761E086E00E94B21560ED77E09A
:1005E00080E090E00E94141760E086E00E94B2155F
:1005F00061E083E10E94B21564E670E080E090E083
:100600000E9414178CE094E00E94B51360E08CE027
:1006100094E00E941D148CE094E00E944312873005
:1006200008F086E08093DB03C0E08091DB03C8170D
:1006300070F488E0C89FB001112464527C4F8FE1B0
:1006400094E00E949111882311F0CF5FEECF64EF08
:1006500071E080E090E00E94141760E083E10E9466
:10066000B2158091DB03811103C01092B20303C065
:1006700081E08093B20385E096E00E94DF1B88232F
:1006800021F081E08093B30302C01092B303809104
:10069000B303813009F053C162E671E085E096E072
:1006A0000E94CB1722E030E043E353E36FEA72E4A9
:1006B00085E096E00E94E7196CE671E085E096E03F
:1006C0000E94CB1722E030E046E656E66FEA72E47D
:1006D00085E096E00E94E71966E771E085E096E024
:1006E0000E94CB1722E030E040E050E06FEA72E475
:1006F00085E096E00E94E71960E871E085E096E009
:100700000E94CB1722E030E049E25CE565E871E445
:1007100085E096E00E94E71968EE73E080E090E0E3
:100720000E9414176AE871E085E096E00E94CB17FA
:1007300020E030E0B701A60185E096E00E94E519CF
:100740006FE271E085E096E00E94E8178091B403C3
:100750008823D9F166EA71E085E096E00E94E81707
:1007600062ED71E085E096E00E94E81780912D042B
:10077000813031F46AEF71E085E096E00E94E8177D
:100780006AE072E085E096E00E94CB17409101019B
:1007900050910201609103017091040122E030E068
:1007A00085E096E00E94E71961E172E085E096E05D
:1007B0000E94CB1722E030E04AE959E969ED7FE376
:1007C00085E096E00E94E7191FC06FE172E085E0C6
:1007D00096E00E94E81761E572E085E096E00E94ED
:1007E000CB174AE050E066EE85E096E00E94CA181A
:1007F0006FE271E085E096E00E94E81761E672E042
:1008000085E096E00E94E8178091B103811103C052
:1008100068E972E024C08091B803882331F069EA66
:1008200072E085E096E00E94E8178091B703882384
:1008300031F067EB72E085E096E00E94E817809166
:10084000B603882331F065EC72E085E096E00E9403
:10085000E8178091B503882331F063ED72E085E0FD
:1008600096E00E94E8178091B203813079F461EE3E
:1008700072E085E096E00E94CB174AE050E060917C
:10088000DB0385E096E00E94D11806C06AEF72E0B3
:1008900085E096E00E94E81762E371E085E096E06B
:1008A0000E94E81760E173E085E096E00E94CB17B4
:1008B0004AE050E06091000185E096E00E94CA188D
:1008C00067E173E085E096E00E94CB176FE173E08B
:1008D00085E096E00E94CB1766E273E085E096E043
:1008E0000E94CB174AE050E062ED70E085E096E0B0
:1008F0000E94A51861E373E085E096E00E94CB17A3
:100900008091B203813071F461E573E085E096E097
:100910000E94CB174AE050E06091DB0385E096E04F
:100920000E94CA1868EF72E085E096E00E94E8171E
:1009300064EF71E080E090E00E94141704C085E04D
:1009400096E00E948A1B8091B803882351F023E32C
:1009500033E34FEA52E461E070E082E495E00E9404
:10096000500C8091B703882351F026E636E64FEA13
:1009700052E462E070E086EE94E00E94500C8091B8
:10098000B603882351F020E030E04FEA52E463E000
:1009900070E08AE894E00E94500C8091B5038823AF
:1009A00051F029E23CE545E851E464E070E08EE274
:1009B00094E00E94500C8091B403882309F460C035
:1009C0008091B8038823A1F02091010130910201A8
:1009D00040910301509104011AE9E12E19E9F12E29
:1009E00009ED1FE360E070E082E495E00E94340CC2
:1009F0008091B7038823A1F0209101013091020179
:100A000040910301509104011AE9E12E19E9F12EF8
:100A100009ED1FE360E070E086EE94E00E94340C84
:100A20008091B6038823A1F0209101013091020149
:100A300040910301509104011AE9E12E19E9F12EC8
:100A400009ED1FE360E070E08AE894E00E94340C56
:100A50008091B5038823A1F020910101309102011A
:100A600040910301509104011AE9E12E19E9F12E98
:100A700009ED1FE360E070E08EE294E00E94340C28
:100A800042E050E06FE171E081E00E94111688EBD6
:100A90009BE09093CC038093CB039093CE03809301
:100AA000CD039093D0038093CF039093D203809390
:100AB000D1039093D4038093D3039093D603809370
:100AC000D503DF91CF911F910F91FF90EF90DF90B1
:100AD000CF900895CF92DF92EF92FF9298E0899F96
:100AE000B001112464527C4F8CE094E00E942F15D9
:100AF0006B017C0120E030E04AEF52E40E949C1C34
:100B000087FF16C020E030E04CE552ECC701B6018B
:100B10000E94EB1D181664F420E030E040E251E43E
:100B2000C701B6010E94EF1D0E94081DCB0100C045
:100B3000FF90EF90DF90CF9008958F929F92AF92A9
:100B4000BF92CF92DF92EF92FF92CF93DF930E94FA
:100B5000E5166B017C018091B403882351F068ECA9
:100B600070E080E090E00E9414171092CA03109287
:100B7000C9038091B803882309F44FC08091B4035E
:100B80008823C9F140ED57E06EE070E082E495E023
:100B90000E94870C60914205709143058091440545
:100BA000909145050E94081D7093BA036093B903A4
:100BB00060914605709147058091480590914905DF
:100BC0000E94081D7093BC036093BB0320E030E0DB
:100BD00048EC52E460914E0570914F0580915005AC
:100BE000909151050E94EF1D0E94081D7093CA0349
:100BF0006093C90312C06EE776E082E495E00E943C
:100C0000580F20E030E046E653E40E94EF1D0E94BA
:100C1000081D7093BA036093B9038091B7038823CA
:100C200009F44FC08091B4038823C9F140ED57E027
:100C30006EE070E086EE94E00E94870C6091E6041E
:100C40007091E7048091E8049091E9040E94081DE6
:100C50007093BE036093BD036091EA047091EB044E
:100C60008091EC049091ED040E94081D7093C003E4
:100C70006093BF0320E030E048EC52E46091F2045E
:100C80007091F3048091F4049091F5040E94EF1D9B
:100C90000E94081D7093CA036093C90312C06EE7D7
:100CA00076E086EE94E00E94580F20E030E046E6C1
:100CB00053E40E94EF1D0E94081D7093BE036093D1
:100CC000BD038091B603882309F44FC08091B4031B
:100CD0008823C9F140ED57E06EE070E08AE894E0C7
:100CE0000E94870C60918A0470918B0480918C041F
:100CF00090918D040E94081D7093C2036093C103FC
:100D000060918E0470918F04809190049091910471
:100D10000E94081D7093C4036093C30320E030E079
:100D200048EC52E460919604709197048091980485
:100D3000909199040E94EF1D0E94081D7093CA03B0
:100D40006093C90312C06EE776E08AE894E00E94DF
:100D5000580F20E030E046E653E40E94EF1D0E9469
:100D6000081D7093C2036093C1038091B50388236B
:100D700009F44FC08091B4038823C9F140ED57E0D6
:100D80006EE070E08EE294E00E94870C60912E0489
:100D900070912F0480913004909131040E94081DBD
:100DA0007093C6036093C50360913204709133045D
:100DB00080913404909135040E94081D7093C803FB
:100DC0006093C70320E030E048EC52E460913A04BD
:100DD00070913B0480913C0490913D040E94EF1D72
:100DE0000E94081D7093CA036093C90312C06EE786
:100DF00076E08EE294E00E94580F20E030E046E674
:100E000053E40E94EF1D0E94081D7093C603609377
:100E1000C5038091B403811116C087E00E94331589
:100E2000BC01882777FD8095982F0E943B1D2BE2FF
:100E30003BE64EE25FE30E94EF1D0E94081D7093A7
:100E4000CA036093C9038091B2038130D9F561E090
:100E500083E10E94B21582E390E00E941A09CCED72
:100E6000D3E0A12CB12C8091DB0390E0A816B90649
:100E70005CF44BE0BE018CE094E00E943F132FEF46
:100E8000A21AB20A2896EFCF8CE094E00E949E143A
:100E900087E791E00E941A09C0E08091DB03C81740
:100EA00068F48C2F0E946A05EC2FF0E0EE0FFF1F14
:100EB000E553FC4F91838083CF5FEFCF60E083E108
:100EC0000E94B2158091B0038823D1F0F89420914C
:100ED000B0038091D7039091D803A091D903B0912A
:100EE000DA03820F911DA11DB11D8093D70390934A
:100EF000D803A093D903B093DA031092B003789487
:100F00008091B303813009F0D0C06091B903709132
:100F1000BA034AE050E085E096E00E949D1868EF31
:100F200072E085E096E00E94CB176091BB03709160
:100F3000BC034AE050E085E096E00E949D1868EF0F
:100F400072E085E096E00E94CB176091BD0370913E
:100F5000BE034AE050E085E096E00E949D1868EFED
:100F600072E085E096E00E94CB176091BF0370911C
:100F7000C0034AE050E085E096E00E949D1868EFCB
:100F800072E085E096E00E94CB176091C1037091FA
:100F9000C2034AE050E085E096E00E949D1868EFA9
:100FA00072E085E096E00E94CB176091C3037091D8
:100FB000C4034AE050E085E096E00E949D1868EF87
:100FC00072E085E096E00E94CB176091C5037091B6
:100FD000C6034AE050E085E096E00E949D1868EF65
:100FE00072E085E096E00E94CB176091C703709194
:100FF000C8034AE050E085E096E00E949D1868EF43
:1010000072E085E096E00E94CB176091C903709171
:10101000CA034AE050E085E096E00E949D1868EF20
:1010200072E085E096E00E94CB174091D703509183
:10103000D8036091D9037091DA032AE030E085E0AB
:1010400096E00E94BD1868EF72E085E096E00E948D
:10105000CB178091B203813069F069EF72E085E0CF
:1010600096E00E94E81762E370E080E090E00E9462
:1010700014171BC0C0E08091DB03C81770F7EC2F7A
:10108000F0E0EE0FFF1FE553FC4F608171814AE0F5
:1010900050E085E096E00E949D1868EF72E085E0E0
:1010A00096E00E94CB17CF5FE6CF8091B4038823F0
:1010B00071F061E086E00E94B21568EC70E080E0BB
:1010C00090E00E94141760E086E00E94B2150E9432
:1010D0006A010E94E5164B015C018C189D08AE0860
:1010E000BF08D501C4018C599F4FAF4FBF4F883EF9
:1010F0009340A105B10558F4F4E8CF2EF3E0DF2EBC
:10110000E12CF12CC818D908EA08FB0805C0EAE070
:10111000CE2ED12CE12CF12C8091B3038130E1F45F
:1011200061E673E085E096E00E94CB172AE030E0AC
:10113000B501A40185E096E00E94E8186BE673E033
:1011400085E096E00E94CB172AE030E0B701A601C7
:1011500085E096E00E94E8188091B403882371F03E
:10116000C701B601DF91CF91FF90EF90DF90CF9054
:10117000BF90AF909F908F900C94141785EFC81676
:1011800081E0D806E104F10420F0C601845F9140BB
:1011900002C08AE090E0DF91CF91FF90EF90DF9066
:1011A000CF90BF90AF909F908F900C941A0965E0FC
:1011B0008FE194E00E946E116FE174E08CE094E0A6
:1011C0000C94341283FF02C098E2892787FD06C081
:1011D00080649091600090939E0502C080919E056E
:1011E00094B7977F94BFF894909160009861909322
:1011F00060008093600078940895EAE7F0E09081C1
:1012000080818F77808383B7817F846083BFF894E8
:1012100083B7816083BF85B7806685BF85B78F79C7
:10122000806485BF7894889583B78E7F83BF9093C1
:101230007A000895DF92EF92FF920F931F93CF935E
:10124000DF938C01EC0128E0E22EF12CC031D105B6
:1012500038F19E01D12C2032310538F0D39489E049
:10126000D81619F036952795F6CF10929F058D2D3B
:101270000E94E2080E94FD088FEF0E94E208C70169
:1012800002C0880F991FDA94E2F7C81BD90B20918E
:101290009F05222319F0C81BD90BD8CF80E001C0CD
:1012A00081E04091FD055091FE056091FF05709130
:1012B00000060C1B1D0B400F511F611D711D40933B
:1012C000FD055093FE056093FF0570930006DF91C6
:1012D000CF911F910F91FF90EF90DF900895809133
:1012E0009F058F5F80939F0508958627682F6295DD
:1012F0006827062E669566956025062E66956025FC
:101300006770082E892F669507946795902D86271C
:1013100006946795902586270895E8982A988EBDAB
:101320000DB407FEFDCF8EB56EBD0DB407FEFDCF2B
:101330008EB52A9AE89A089560E00C948D0988E2A7
:101340000E949C09807521F080E00E949C09F7CFE3
:101350000895CF93C82F81E00E949C09682F637E77
:101360006C2B81E8CF910C948D0922E0660F771FDA
:10137000881F991F2A95D1F729E03DE340E050E00E
:101380000E94D51E66E0220F331F441F551F6A9529
:10139000D1F72093A9053093AA054093AB0550934C
:1013A000AC0508958091A205853021F48091A305B4
:1013B000882311F080E0089584E08093A2050E94C4
:1013C000A90981E008959091A20581E094300CF084
:1013D00080E00895882311F080E001C084E00E943D
:1013E000A90984E08093A2050895CF93DF932A9AF8
:1013F000229A2A9A84B18C6284B980E58CBD8DB51D
:1014000081608DBD6AEA8FEA0E948D098FE20E9499
:101410009C098A3AB9F765E58FEA0E948D098FE247
:101420000E949C098535B9F7C8E6D0E0FE01849199
:10143000882339F03196649180680E948D09229644
:10144000F5CF6091A80580EB0E948D098091A905D8
:101450009091AA05A091AB05B091AC05BD0188277C
:10146000992787E80E948D098091A9059091AA0586
:10147000A091AB05B091AC05692F7A2F8B2F9927DE
:1014800088E80E948D096091A90589E80E948D096C
:1014900084E08093A205DF91CF910895CF93DF93ED
:1014A000EC018091A205843019F0853021F14DC006
:1014B0001092B0051092A3056091A8058FEF9FEFE1
:1014C0000E9475099093A6058093A505D093A10568
:1014D000C093A00585E08093A2050E949F0960E863
:1014E00085EA0E948D0980E10E94A90962E08EE9E7
:1014F0000E948D092AC08091B0052091A30590E03B
:10150000049630E08217930724F08091A305883475
:10151000E0F084E08093A2050E94A9098091B005C3
:101520008334B0F48091A5059091A605892B81F4B0
:101530008091AF0586FF0FC09091A7059F3159F0AC
:101540008091AF058F71891731F08FEF9FEF05C044
:1015500081E090E002C080E090E0DF91CF910895BB
:10156000CF934093B005FB0120E030E050E024171A
:10157000350744F4D901AF54BA4F91919C932F5F32
:101580003F4FF5CF86FD04C0807E9091A705890F5F
:101590008093AF056091A8058FEF9FEF0E947509BA
:1015A0009093A6058093A5059091B0058EEF891BB9
:1015B0008093A2050E949F098CE00E94A90960E027
:1015C00085EA0E948D098091A2058330DCF588E2CE
:1015D0000E949C0987FDF7CF8091A20587FF1BC061
:1015E0009091B0058091A205E091A005F091A10530
:1015F000E90FF11DE80FF11D87FDFA95C3816C2FEE
:101600008091A5059091A6050E9475099093A60565
:101610008093A5050DC08091A205882329F0813013
:1016200031F4C091A60504C0C091A50501C0CAEA65
:101630006C2F80E80E948D098091A2058F5F8093B6
:10164000A205C1CFCF9108958091A205853009F000
:101650004DC060E485EA0E948D0984E20E949C09E5
:101660008093A405789488E20E949C098075D9F340
:101670008091A30581110FC0E091A005F091A10513
:101680008091A30591E0980F9093A3059091A805F0
:10169000E80FF11D908380E00E949C09E091A00575
:1016A000F091A1059091A30521E0290F2093A305B6
:1016B000E90FF11D8083682F8091A5059091A60503
:1016C0000E9475099093A6058093A5058091B005A9
:1016D0002091A30590E0049630E082179307A4F0D0
:1016E0008091A305883408F4BECF089588E20E9453
:1016F0009C0983FF09C084E08093A2050E94A90988
:1017000060E885EA0C948D090895CF92DF92EF92FC
:10171000FF921F93CF93DF93C82F162FD42FF90179
:10172000AFEFA60FA33028F4B0E0AB57BC4FAC919D
:1017300001C0A0E0B0E020E836E948E950E00E94AE
:10174000341F6B017C01212F30E0A4ECB9E00E9432
:101750001E1FDF019B01AC010E94341FC60ED71E65
:10176000E81EF91EC701B6010E94B509D093A8056D
:101770008C2F8F718093A70564E170E080E090E08A
:101780000E9414178091A705882341F043E050E0A0
:1017900064E27BE080E00E94111603C080E00E94BA
:1017A00031160E94F509C093AD058C2FDF91CF91C2
:1017B0001F91FF90EF90DF90CF9008958EEA95E013
:1017C0000E944E0A9093F7058093F6052091F60546
:1017D0003091F70581E02F3F3F4F09F480E00895F5
:1017E000EF92FF921F93CF93DF931F92CDB7DEB797
:1017F000182F7B0149830E94D2094981811105C0BC
:1018000049830E94DE0B4981F5CFB701812F0F90EC
:10181000DF91CF911F91FF90EF900C94B00ACF937E
:10182000C82F0E94E3098823B9F0CC23D1F383B7F2
:10183000817FC33021F0C23021F49CE003C094E0EA
:1018400001C090E0892B83BF83B7816083BF8895F7
:1018500083B78E7F83BFE5CFCF91089591E081114B
:1018600090E0892F0C94EA09EF92FF920F931F9357
:10187000FC01758B648B208F318F428F538FE0A2D8
:10188000F1A202A313A340E050E060E074E444AB93
:1018900055AB66AB77AB1F910F91FF90EF9008951A
:1018A000FC01778B668B248F358F468F578F40E0F6
:1018B00050E060E074E440AF51AF62AF73AF0895A1
:1018C0008EE480937C0062E070E080E090E00E9413
:1018D000141780917A00806480937A0080917A0056
:1018E00086FDFCCF809178002091790030E0322F86
:1018F0002227442737FD4095542F282B60E070E3C2
:1019000081E190E00E94F71ECA01B90108952F926B
:101910003F924F925F926F927F928F929F92AF927F
:10192000BF92CF92DF92EF92FF920F931F93CF93CC
:10193000DF93CDB7DEB7A8970FB6F894DEBF0FBE22
:10194000CDBF98A78FA37E8F6D8F8A010E94600CF8
:101950006D8B7E8B8F8B988F0E94E5164B015C01FF
:101960006FA078A428E5620E711CC801A0E0B0E069
:10197000898B9A8BAB8BBC8BAFA1B8A554968C91FD
:101980000E943315F30191838083BC01882777FD82
:101990008095982F0E943B1D6B017C012DEC3CEC47
:1019A0004CE054E40E949C1C87FF0BC011E026E62B
:1019B00036E646EE53E4C701B6010E94EB1D181649
:1019C0000CF010E00E94E516681979098A099B0954
:1019D00029893A894B895C892617370748075907AF
:1019E00008F040C00E94E516698F7A8F8B8F9C8F1C
:1019F00000E010E01A8219824FA158A5405C5F4FA9
:101A000058A34F8F8FA198A58C5B9F4F9C878B8786
:101A1000AFA1B8A5A85BBF4FBAA3A9A3EFA1F8A532
:101A2000E45BFF4FFE87ED872FA138A5205B3F4F7A
:101A30003CA32BA34FA158A54C5A5F4F588B4F87FF
:101A40008FA198A5865A9F4F9E838D832FA038A47F
:101A50009BE5290E311CAFA1B8A5A85ABF4FBEA364
:101A6000ADA344C1112309F487CFBCCF0E94E51672
:101A7000298D3A8D4B8D5C8D621B730B840B950BFE
:101A800029893A894B895C8962177307840795070E
:101A900008F034C10F5F1F4FEFA1F8A584A595A5ED
:101AA000A6A5B7A580A791A7A2A7B3A784890E94DE
:101AB0003315AFA1B8A595969C938E93949756969F
:101AC0008C910E9433153C01EFA1F8A597A386A342
:101AD00024A135A13A872987B901882777FD809508
:101AE000982F0E943B1D6B017C01AFA1B8A5D49635
:101AF0008D909D90AD90BC90D797A50194010E94C8
:101B0000371C20E030E040E85AE30E94EF1D9B01C3
:101B1000AC01C501B4010E94381C9B01AC01EFA1CE
:101B2000F8A564AB75AB86AB97ABC701B6010E9455
:101B3000371C4B015C01AFA1B8A59C966D937D93BA
:101B40008D939C939F97B301882777FD8095982F5D
:101B50000E943B1D6B017C01EFA1F8A540AC51AC8C
:101B600062AC73ACA30192010E94371C20E030E00C
:101B700040E85AE30E94EF1D9B01AC01C301B20192
:101B80000E94381C9B01AC01AFA1B8A5D8966D93FB
:101B90007D938D939C93DB97C701B6010E94371C00
:101BA0006B017C01EFA1F8A560AB71AB82AB93AB8D
:101BB000A5019401C501B4010E94EF1D9B01AC0178
:101BC000AF8DB8A16D937D938D939C931397EB8507
:101BD000FC8560817181828193810E94381CAB8574
:101BE000BC856D937D938D939C931397A70196016C
:101BF000C701B6010E94EF1D9B01AC01E9A1FAA14A
:101C00006083718382839383AD85BE856D917D9161
:101C10008D919C910E94381CED85FE8560837183B7
:101C200082839383AFA1B8A598964D905D906D90F7
:101C30007C909B97A3019201C501B4010E94371CBF
:101C4000EFA1F8A520A131A142A153A10E94EF1D4F
:101C50009B01AC01C301B2010E94381CAFA1B8A521
:101C6000DC966D937D938D939C93DF97A7019601EE
:101C70000E94EF1D9B01AC01EBA1FCA1608371836D
:101C800082839383AF85B8896D917D918D919C916D
:101C90000E94381CEF85F889608371838283938367
:101CA000D1018C91ED81FE818083ADA1BEA18D918A
:101CB0009C91E985FA858E179F070CF0F6C021E00C
:101CC000F10120830130110529F4F1018081AD81FA
:101CD000BE818C93ED81FE819081D1018C9198170A
:101CE00029F0E981FA813196FA83E98329813A81E1
:101CF0004D8D5E8D2417350708F4B8CEAD89BE89A9
:101D0000BD01882777FD8095982F0E943B1D20E01C
:101D100030E04AE754E40E94A01C20E030E040E8B4
:101D20005AE30E94EF1D2B013C01EFA1F8A5208D85
:101D3000318D428D538D0E94EF1D4B015C01B80126
:101D400080E090E00E94391D6B017C012FA038A437
:101D5000F4E42F0E311C9B01AC01D1016D917D91FA
:101D60008D919C910E94A01C0E94561E9B01AC016B
:101D7000C501B4010E94EF1D69837A838B839C8324
:101D8000EFA1F8A56487758786879787248D358DA1
:101D9000468D578DC301B2010E94EF1D2B013C01FE
:101DA0000FA118A5045B1F4FA7019601D8016D91E3
:101DB0007D918D919C910E94A01C0E94561E9B01BA
:101DC000AC01C301B2010E94EF1D6D837E838F833E
:101DD0009887EFA1F8A5608B718B828B938BA30101
:101DE0009201C501B4010E94EF1DAFA0B8A4F4E5B3
:101DF000AF0EB11CD5012D913D914D915C910E948A
:101E0000EF1DA70196010E94A01C6B017C01EFA1B0
:101E1000F8A560837183828393832D813E814F81F6
:101E2000588569817A818B819C810E94EF1D9B017D
:101E3000AC01AFA1B8A514966D937D938D939C933F
:101E40001797C701B6010E94A01CEFA1F8A56087F3
:101E5000718782879387D1011D921D921D921C92DA
:101E60001397F8011082118212821382D5011D92FC
:101E70001D921D921C921397A8960FB6F894DEBF80
:101E80000FBECDBFDF91CF911F910F91FF90EF90CB
:101E9000DF90CF90BF90AF909F908F907F906F908A
:101EA0005F904F903F902F900895D1011C920ACFE0
:101EB0002F923F924F925F926F927F928F929F925A
:101EC000AF92BF92CF92DF92EF92FF920F931F9348
:101ED000CF93DF9300D000D000D0CDB7DEB79E8384
:101EE0008D837A8369830E94600C2B013C0100E0A2
:101EF00010E08D819E81845B9F4F1C01ED81FE81EE
:101F0000E85BFF4FFC83EB8389819A8108171907EF
:101F100009F455C0ED81FE8186890E943315ED815B
:101F2000FE8197A386A3BC01882777FD8095982F13
:101F30000E943B1D6B017C01ED81FE8180AC91AC68
:101F4000A2ACB3ACA50194010E94371C20E030E0A4
:101F500040E85AE30E94EF1D9B01AC01C501B401AA
:101F60000E94381C9B01AC01ED81FE8160AF71AF16
:101F700082AF93AFC701B6010E94371CED81FE818D
:101F800060AB71AB82AB93AB9B01AC010E94EF1DC8
:101F90009B01AC01EB81FC8160837183828393831D
:101FA000F10160817181828193810E94381CF1016D
:101FB00060837183828393830F5F1F4FA5CFB80126
:101FC00080E090E00E94391D9B01AC01F10160812D
:101FD0007181828193810E94A01C0E94561E6B0118
:101FE0007C01B201882777FD8095982F0E943B1DC8
:101FF00020E030E04AE754E40E94A01C20E030E0FA
:1020000040E85AE30E94EF1DED81FE81248D358D5D
:10201000468D578D0E94EF1DA70196010E94EF1D6E
:10202000ED81FE81608B718B828B938BF10110822D
:1020300011821282138226960FB6F894DEBF0FBE6D
:10204000CDBFDF91CF911F910F91FF90EF90DF9067
:10205000CF90BF90AF909F908F907F906F905F9048
:102060004F903F902F900895FF920F931F93CF931F
:10207000DF93FC010081C181D281F8948981F02E27
:10208000F0948F21898378941DE7115029F182E023
:1020900090E00E943A1788818023B9F3F8948A81EE
:1020A0008F218A838981802B8983789480EE91E0C7
:1020B0000E943A17F89489818F21898386E490E001
:1020C0000E943A178881802311E009F010E078948B
:1020D0008AE991E00E943A17812FDF91CF911F91F9
:1020E0000F91FF9008951F93CF93DF93FC01108110
:1020F000C181D281912F909560FF12C0F8948A819E
:1021000089238A838981812B89838AE090E00E94D8
:102110003A178A81812B8A83789487E390E011C0F3
:10212000F8948A8189238A838981812B898381E438
:1021300090E00E943A178A81812B8A83789485E007
:1021400090E0DF91CF911F910C943A170F931F935A
:10215000CF93DF93FC011081C181D281F8948981F2
:10216000812B89838A81012F009580238A8383E0D4
:1021700090E00E943A178981802389838AE090E069
:102180000E943A17C881789485E390E00E943A173C
:102190001C2381E009F480E0DF91CF911F910F9122
:1021A0000895CF92DF92EF92FF920F931F93CF93F8
:1021B000DF931F92CDB7DEB76C01E62E08E010E08A
:1021C000FF24F39461E09F2D9E2109F460E0C60195
:1021D00049830E947310FF0C0150110949810115B8
:1021E000110581F7411115C0F894D6011196ED91B2
:1021F000FC91129791818C9180958923818311960E
:10220000ED91FC91129792818C9180958923828324
:1022100078940F90DF91CF911F910F91FF90EF90E5
:10222000DF90CF900895EF92FF920F931F93CF937B
:10223000DF938C01C8E0D0E0F12CEE24E394C801D8
:102240000E94A6108111FE28EE0C21972097B9F765
:102250008F2DDF91CF911F910F91FF90EF900895F7
:10226000CF92DF92FF920F931F93CF93DF931F9232
:10227000CDB7DEB78C01F62E40E065E579830E948C
:10228000D110CF2C7981D72E88E0F82EF6016191FC
:102290006F0140E0C8010E94D110FA94B9F70F9085
:1022A000DF91CF911F910F91FF90DF90CF90089514
:1022B00040E06CEC0C94D110FC011386158614865A
:1022C00027E030E0DF01A20FB31F13961C92211507
:1022D000310519F021503109F5CF08951F93CF939F
:1022E000DF93EC01162F60E0812F0E947915612F9A
:1022F00070E0FB01E156FE4FE491E883FB01ED54F1
:10230000FE4FE491F0E0EE0FFF1FE953FE4F859181
:1023100094919A838983CE01DF91CF911F910C9480
:102320005C11AF92BF92CF92DF92EF92FF920F9328
:102330001F93CF93DF931F92CDB7DEB75C01D62EEC
:10234000E72EFC01858581115DC0C5010E94341016
:10235000811105C0F5011386158614866CC040E016
:1023600060EFC5010E94D11001E0F12CC12C11E0F9
:10237000C5010E94A610682FC50169830E94A6109E
:102380006981613019F48130B9F433C02F2D30E008
:1023900068131BC0F5018385181730F4E20FF31F93
:1023A0008381802349F402C0181731F060E01930AE
:1023B00058F4F501148708C0F501EF0DF11D838174
:1023C000802B838361E009C0C12EF501E20FF31F6A
:1023D0008381902F909589238383C5010E94731078
:1023E0001F5F000F11F4F39401E0F7E0FF1508F010
:1023F000BFCF113438F0F501C386C11009C081E0A8
:10240000858706C0F50113861586148680E013C003
:10241000F50183818823B1F3ED2DFE2D80E090E05E
:10242000D501A80FB91F13962C91219301968830DE
:102430009105B1F781E00F90DF91CF911F910F913E
:10244000FF90EF90DF90CF90BF90AF900895DC01A8
:1024500080E0615038F0ED91E827F0E0E557FF4F5C
:102460008491F7CF08950895FC0183E392E1928B64
:10247000818B768365831482108289E0818381E079
:10248000828383830895FC0184810895CF93DF9331
:10249000EB0167E0CE010E94271291E02F818213A9
:1024A00090E0892FDF91CF910895CF92DF92EF9244
:1024B000FF920F931F93CF93DF9300D0CDB7DEB77A
:1024C0006C01F42EE52EFC018581968169837A8367
:1024D0000E94341069817A81882311F1F601858187
:1024E00096810E94301140E06EEBF6018581968165
:1024F0000E94D1100F2D1E2D89E0F82EF601858146
:1025000096810E941311F80181938F01FA94B1F71B
:10251000F601858196810E94341091E0813009F0A6
:1025200090E0892F0F900F90DF91CF911F910F9125
:10253000FF90EF90DF90CF900895CF93DF93EA0163
:102540000E945512882351F068E0CE010E942712A4
:1025500091E02885821390E0892F01C080E0DF910F
:10256000CF910895EF92FF920F931F93CF93DF9334
:10257000EC018B017A018D819E810E943410B8019B
:102580008D819E810E94301140E06EE48D819E819C
:102590000E94D11040E0F70162818D819E810E94EE
:1025A000D11040E0F70163818D819E810E94D1109E
:1025B000F8018081803139F040E0F70164818D813C
:1025C0009E810E94D1108D819E810E943410B8019D
:1025D0008D819E810E943011488168E48D819E81A9
:1025E0000E94D11064E170E080E090E00E94141736
:1025F0008881882331F06AE070E080E090E00E94FA
:1026000014178D819E81DF91CF911F910F91FF90C3
:10261000EF900C943410EF92FF921F93CF93DF93BF
:1026200000D0CDB7DEB77C01FC018581968169833E
:102630007A830E94341069817A81F70185819681BD
:102640000E94301140E064EBF701858196810E9481
:10265000D110F701858196810E94A610182FF701ED
:10266000858196810E94341081E0111180E00F90E5
:102670000F90DF91CF911F91FF90EF900895EF920F
:10268000FF920F931F93CF93DF93CDB7DEB72A97B7
:102690000FB6F894DEBF0FBECDBF7C018B01242F97
:1026A000AE014F5F5F4F2A870E949D122A858823C3
:1026B000D1F0F80180818031C1F02B3041F02C3015
:1026C00021F02A3031F48FE305C08FE703C08FE596
:1026D00001C08FE18D83AE014F5F5F4FB801C7012D
:1026E0000E94B21202C080E001C081E02A960FB6BB
:1026F000F894DEBF0FBECDBFDF91CF911F910F9138
:10270000FF90EF900895CF93DF93CDB7DEB7299771
:102710000FB6F894DEBF0FBECDBFFB012081203184
:10272000D1F0AE014F5F5F4F0E949D12882379F078
:102730008D818F3351F020F48F3149F489E00CC042
:102740008F3539F08F3739F002C08AE005C080E05C
:1027500003C08BE001C08CE029960FB6F894DEBF71
:102760000FBECDBFDF91CF910895EF92FF920F93EF
:102770001F93CF93DF93CDB7DEB761970FB6F89471
:10278000DEBF0FBECDBF8C01FC01858196810E940A
:102790005C11F8011482FF24F394BE01665F7F4F41
:1027A000F801858196810E9491118823C9F1BE01AB
:1027B000665F7F4FC8010E944612882371F3F801BB
:1027C0008081811108C0BE01665F7F4FC8010E94F1
:1027D0000B13811122C0AE014F5F5F4FBE01665FD8
:1027E0007F4FC8010E945512F801E180BE01665F6B
:1027F0007F4FC8010E9483138E1518F4F801818160
:1028000006C0BE01665F7F4FC8010E948313F801B6
:10281000818384818F5F8483C0CFF801F082DBCF16
:1028200061960FB6F894DEBF0FBECDBFDF91CF919A
:102830001F910F91FF90EF900895FC01628308951E
:10284000CF93DF93CDB7DEB729970FB6F894DEBFED
:102850000FBECDBFAE014F5F5F4F0E94551281E0AA
:102860009981911101C080E029960FB6F894DEBFDE
:102870000FBECDBFDF91CF9108958F929F92AF92FF
:10288000BF92CF92DF92EF92FF920F931F93CF935D
:10289000DF93EC018A016950633048F4E62FF0E0E1
:1028A000EE0FFF1FE857FC4F8080918004C09EEE22
:1028B000892E92E0992E0115110501F18B81882353
:1028C000E9F0888181111AC00E94E5166B017C0134
:1028D000AA2497FCA094BA2CB801CE010E9420141F
:1028E00081111FC00E94E516681979098A099B09A0
:1028F0006C157D058E059F05A0F4EECFB4018827E9
:1029000077FD8095982FDF91CF911F910F91FF90C8
:10291000EF90DF90CF90BF90AF909F908F900C94EE
:102920001417DF91CF911F910F91FF90EF90DF90DF
:10293000CF90BF90AF909F908F900895CF93DF93EB
:10294000EC018D819E810E9434108D819E810E94B8
:102950005811488164E48D819E810E94D1108A8142
:10296000882341F040E050E06981CE01DF91CF91B2
:102970000C943D14DF91CF910895FA01208148E035
:10298000249F90011124818190E0982F8827990F2E
:10299000990F990F282B392BDB018C918031C1F4D1
:1029A000678170E08681AB01481B5109CA01969589
:1029B000982F8827979587950E94C11E60517109AD
:1029C000207F53E0220F331F5A95E1F7260F371F60
:1029D000C9010895EF92FF920F931F93CF93DF9356
:1029E000CDB7DEB729970FB6F894DEBF0FBECDBFC7
:1029F0008C017B01AE014F5F5F4F0E949D128823C7
:102A000041F0AE014F5F5F4FB701C8010E94BD1496
:102A100002C080E894EE29960FB6F894DEBF0FBE90
:102A2000CDBFDF91CF911F910F91FF90EF9008954F
:102A3000813824EE920774F0BC01882777FD8095D9
:102A4000982F0E943B1D20E030E040E05CE30E94B4
:102A5000EF1D089560E070E08EEF92EC08950E9403
:102A6000EA140C9418158E3008F08E50877020915F
:102A7000050190E4299F90011124822B80937C0012
:102A800080917A00806480937A0080917A0086FD3C
:102A9000FCCF809178002091790090E0922B0895EE
:102AA000833081F028F4813099F08230A1F00895CC
:102AB0008630A9F08730B9F08430D1F4809180005D
:102AC0008F7D03C0809180008F7780938000089570
:102AD00084B58F7702C084B58F7D84BD08958091C1
:102AE000B0008F7703C08091B0008F7D8093B000DD
:102AF0000895CF93DF9390E0FC01E156FE4F2491BF
:102B0000FC01ED54FE4F8491882349F190E0880F39
:102B1000991FFC01E552FE4FA591B4918F529E4F33
:102B2000FC01C591D4919FB7611108C0F8948C91B4
:102B3000209582238C93888182230AC0623051F4CD
:102B4000F8948C91322F309583238C938881822B3B
:102B5000888304C0F8948C91822B8C939FBFDF9163
:102B6000CF9108950F931F93CF93DF931F92CDB70B
:102B7000DEB7282F30E0F901E557FE4F8491F901C7
:102B8000E156FE4F1491F901ED54FE4F04910023DC
:102B9000C9F0882321F069830E9450156981E02FD4
:102BA000F0E0EE0FFF1FEF52FE4FA591B4919FB7DB
:102BB000F8948C91611103C01095812301C0812B81
:102BC0008C939FBF0F90DF91CF911F910F9108952C
:102BD000CF93DF93282F30E0F901E557FE4F849122
:102BE000F901E156FE4FD491F901ED54FE4FC49125
:102BF000CC2391F081110E945015EC2FF0E0EE0FE4
:102C0000FF1FE953FE4FA591B4912C912D2381E034
:102C100090E021F480E002C080E090E0DF91CF916D
:102C200008958230E8F4E82FF0E0EE0FFF1FE8503F
:102C3000FA4F71836083813041F0809169008C7F0D
:102C4000842B80936900E89A089580916900440F6D
:102C5000551F440F551F837F842B80936900E99A89
:102C60000895823068F4813011F0E89801C0E99845
:102C7000E82FF0E0EE0FFF1FE850FA4F11821082AC
:102C800008951F920F920FB60F9211242F933F9326
:102C90004F935F936F937F938F939F93AF93BF9364
:102CA000EF93FF938091F8059091F905892B29F016
:102CB000E091F805F091F9050995FF91EF91BF9129
:102CC000AF919F918F917F916F915F914F913F91C4
:102CD0002F910F900FBE0F901F9018951F920F927B
:102CE0000FB60F9211242F933F934F935F936F93DF
:102CF0007F938F939F93AF93BF93EF93FF938091B5
:102D0000FA059091FB05892B29F0E091FA05F091E5
:102D1000FB050995FF91EF91BF91AF919F918F9125
:102D20007F916F915F914F913F912F910F900FBEC7
:102D30000F901F9018951F920F920FB60F921124AB
:102D40002F933F938F939F93AF93BF938091FD05F4
:102D50009091FE05A091FF05B09100063091FC0511
:102D600023E0230F2D3720F40196A11DB11D05C0CE
:102D700026E8230F0296A11DB11D2093FC05809328
:102D8000FD059093FE05A093FF05B093000680918A
:102D9000010690910206A0910306B09104060196E7
:102DA000A11DB11D8093010690930206A093030616
:102DB000B0930406BF91AF919F918F913F912F9156
:102DC0000F900FBE0F901F9018952FB7F894609139
:102DD000FD057091FE058091FF05909100062FBFC3
:102DE00008953FB7F8948091010690910206A09152
:102DF0000306B091040626B5A89B05C02F3F19F025
:102E00000196A11DB11D3FBF6627782F892F9A2FEC
:102E1000620F711D811D911D42E0660F771F881F93
:102E2000991F4A95D1F70895CF92DF92EF92FF92C2
:102E3000CF93DF936B017C010E94F116EB01C1146B
:102E4000D104E104F10479F00E94F1166C1B7D0BB2
:102E5000683E7340A0F381E0C81AD108E108F10888
:102E6000C851DC4FECCFDF91CF91FF90EF90DF9016
:102E7000CF9008950197009739F0880F991F880F18
:102E8000991F02970197F1F70895789484B58260AD
:102E900084BD84B5816084BD85B5826085BD85B5FE
:102EA000816085BDEEE6F0E0808181608083E1E8AD
:102EB000F0E01082808182608083808181608083E5
:102EC000E0E8F0E0808181608083E1EBF0E08081E8
:102ED00084608083E0EBF0E0808181608083EAE7BA
:102EE000F0E0808184608083808182608083808143
:102EF000816080838081806880831092C100089502
:102F00000E9445170E94BA01C5ECDAE10E949D05B6
:102F10002097E1F30E94C51AF9CFCF92DF92EF928A
:102F2000FF920F931F93CF93DF936C017A01EB0114
:102F3000E60EF71E00E010E0CE15DF0561F06991A6
:102F4000D601ED91FC910190F081E02DC60109952B
:102F5000080F191FF1CFC801DF91CF911F910F9179
:102F6000FF90EF90DF90CF9008956115710581F08B
:102F7000DB010D900020E9F7AD0141505109461BDE
:102F8000570BDC01ED91FC910280F381E02D099457
:102F900080E090E008950C94B517DC01ED91FC9170
:102FA0000190F081E02D09940F931F93CF93DF934D
:102FB000EC016DE00E94CD178C016AE0CE010E9409
:102FC000CD17800F911FDF91CF911F910F91089521
:102FD0000F931F93CF93DF93EC010E94B5178C01E1
:102FE000CE010E94D417800F911FDF91CF911F91C6
:102FF0000F9108958F929F92AF92BF92CF92DF92DE
:10300000EF92FF920F931F93CF93DF93CDB7DEB76D
:10301000A1970FB6F894DEBF0FBECDBF7C01C42EC2
:10302000E52FCB01D22E19A221E02D1510F02AE0B8
:10303000D22E8E010F5D1F4F8D2C912CA12CB12C07
:103040006C2D7E2FA50194010E94D51E8C2DD29E41
:1030500080191124015011098A3014F4805D01C0D7
:10306000895CF8018083211531054105510521F066
:10307000C22EE32FCA01E4CFB801C7010E94B517E1
:10308000A1960FB6F894DEBF0FBECDBFDF91CF91F2
:103090001F910F91FF90EF90DF90CF90BF90AF9076
:1030A0009F908F900895CF92DF92EF92FF920F93AF
:1030B0001F93CF93DF93EC016A017B01211531054A
:1030C00079F4E881F9810190F081E02D642FDF919E
:1030D000CF911F910F91FF90EF90DF90CF900994C7
:1030E0002A303105E9F477FF1AC06DE20E94CD174E
:1030F0008C0144275527BA014C195D096E097F09D7
:103100002AE0CE010E94FA17800F911FDF91CF9124
:103110001F910F91FF90EF90DF90CF9008952AE0DC
:10312000B701A601CE01DF91CF911F910F91FF90C2
:10313000EF90DF90CF900C94FA179A01AB016627BD
:1031400057FD6095762F0C9453180F931F93CF93D0
:10315000DF93EC019A01AB01662757FD6095762F4E
:103160000E9453188C01CE010E94D417800F911F2A
:10317000DF91CF911F910F9108952115310541F4F1
:10318000DC01ED91FC910190F081E02D642F099418
:103190000C94FA179A01462F50E060E070E00C940E
:1031A000BD180F931F93CF93DF93EC019A01462F25
:1031B00050E060E070E00E94BD188C01CE010E94DA
:1031C000D417800F911FDF91CF911F910F91089518
:1031D0000F931F93CF93DF93EC010E94BD188C01D6
:1031E000CE010E94D417800F911FDF91CF911F91C4
:1031F0000F9108954F925F926F927F928F929F925C
:10320000AF92BF92CF92DF92EF92FF920F931F93F4
:10321000CF93DF93EC016A017B01B22E9A01AB01DF
:10322000C701B6010E94941E882319F06EE873E06E
:1032300027C026013701E89477F82FEF3FEF4FE7DB
:103240005FE7C301B2010E94941E81110DC02FEFF0
:103250003FEF4FE75FE7C301B2010E949C1C1816C5
:103260001CF462E973E00CC02FEF3FEF4FE75FE41F
:10327000C701B6010E94EB1D1816ACF466E973E0B5
:10328000CE01DF91CF911F910F91FF90EF90DF90D2
:10329000CF90BF90AF909F908F907F906F905F90F6
:1032A0004F900C94B5172FEF3FEF4FE75FECC7013E
:1032B000B6010E949C1C87FDE1CF20E030E0A9010F
:1032C000C701B6010E949C1C87FF0AC06DE2CE01B7
:1032D0000E94CD178C01F7FAF094F7F8F09402C031
:1032E00000E010E0A12C60E070E080E09FE3AB1410
:1032F00041F020E030E040E251E40E94A01CA394A1
:10330000F6CF9B01AC01C701B6010E94381C6B01CE
:103310007C010E940D1D2B013C010E94391D9B0167
:10332000AC01C701B6010E94371C6B017C012AE089
:10333000B301A201CE010E94FA17080F191FBB208A
:1033400039F06AE973E0CE010E94B517080F191F22
:103350007B2C772041F120E030E040E251E4C701CE
:10336000B6010E94EF1D6B017C010E94081D4B01FC
:10337000AA2497FCA094BA2C2AE030E0B501A4015D
:10338000CE010E945318080F191FC501B4010E94F5
:103390003B1D9B01AC01C701B6010E94371C6B01AC
:1033A0007C017A94D6CFC801DF91CF911F910F9104
:1033B000FF90EF90DF90CF90BF90AF909F908F9055
:1033C0007F906F905F904F9008950C94FA180F9330
:1033D0001F93CF93DF93EC010E94FA188C01CE016A
:1033E0000E94D417800F911FDF91CF911F910F91F1
:1033F0000895FC0124853585F901E05CFF4F80814B
:103400009181329620813181821B930B8F73992792
:103410000895FC0184859585FC01E05CFF4F4081A7
:1034200051813296208131814217530741F001903A
:10343000F081E02DE80FF91F808190E008958FEF73
:103440009FEF0895FC0184859585FC01E05CFF4FAA
:10345000408151813296208131814217530779F0A2
:10346000A081B181A80FB91F8C91208131812F5F7C
:103470003F4F2F7333273183208390E008958FEFE0
:103480009FEF0895FC0181A1882329F0A489B589C3
:103490008C9186FFFBCF11A20895CF93DF93FC019F
:1034A00026853785D901A05CBF4F8D919C911197DE
:1034B00001968F739927E901CE5BDF4F48815981CF
:1034C00084179507D9F30D90BC91A02DA20FB31FBF
:1034D0006C93A685B785A05CBF4F11969C938E9385
:1034E000A689B7892C9181E090E0078C02C0880FF3
:1034F000991F0A94E2F7282B2C9381E081A304887A
:10350000F589E02D80818064808381E090E0DF9107
:10351000CF91089508951F920F920FB60F92112424
:103520002F933F934F938F939F93EF93FF938091AC
:10353000C00082FD1CC04091C6008091AB069091F6
:10354000AC0601968F7399272091AD063091AE0697
:103550008217930771F0E091AB06F091AC06E55944
:10356000F94F40839093AC068093AB0602C08091E4
:10357000C600FF91EF919F918F914F913F912F91B5
:103580000F900FBE0F901F90189585E096E00E9457
:10359000F919892B11F00C948A1A08951F920F9231
:1035A0000FB60F9211242F933F938F939F93EF9316
:1035B000FF9320916706309168068091690690918B
:1035C0006A062817390731F48091C1008F7D8093F6
:1035D000C10014C0E0916906F0916A06E95DF94FF7
:1035E00020818091690690916A0601968F739927D0
:1035F00090936A06809369062093C600FF91EF912D
:103600009F918F913F912F910F900FBE0F901F9020
:103610001895CF92DF92EF92FF92CF93DF93EC0158
:103620006A017B01411581EE580761057105F9F0CA
:10363000EC89FD8981E090E008A002C0880F991F05
:103640000A94E2F7808360E079E08DE390E0A701DF
:1036500096010E94D51E2150310941095109569504
:10366000479537952795211580E1380798F0EC8923
:10367000FD89108260E874E88EE190E0A701960170
:103680000E94D51E2150310941095109569547958F
:1036900037952795E889F9893083EA89FB89208362
:1036A00019A2EE89FF89408181E090E09C010C8C99
:1036B00002C0220F331F0A94E2F7422B4083EE89A7
:1036C000FF8940819C010D8C02C0220F331F0A9498
:1036D000E2F7422B4083EE89FF8940819C010E8CEA
:1036E00002C0220F331F0A94E2F7422B4083EE8977
:1036F000FF8920810F8C02C0880F991F0A94E2F77E
:10370000809582238083DF91CF91FF90EF90DF90AF
:10371000CF900895CF93DF93FC0186859785DC01D8
:10372000A05CBF4FEC01CE5BDF4F4D915C911197D8
:103730002881398142175307C1F7A689B7894C916F
:1037400081E090E09C01048C02C0220F331F0A9498
:10375000E2F7209524232C93A689B7894C919C01EC
:10376000058C02C0220F331F0A94E2F72095242310
:103770002C93A689B7894C919C01068C02C0220F1C
:10378000331F0A94E2F7209524232C93A689B78946
:103790002C91078C02C0880F991F0A94E2F780953C
:1037A00082238C9384859585FC01EE5BFF4F2081FD
:1037B0003181329731832083DF91CF91089581E069
:1037C0000895109208061092070688EE93E0A0E094
:1037D000B0E08093090690930A06A0930B06B0937D
:1037E0000C0680EA93E090930606809305068BE62C
:1037F00096E0909312068093110687E296E09093EC
:1038000014068093130685EC90E09093160680933F
:10381000150684EC90E0909318068093170680ECD0
:1038200090E090931A068093190681EC90E09093B3
:103830001C0680931B0682EC90E090931E068093FA
:103840001D0686EC90E09093200680931F0684E08E
:103850008093210683E08093220687E080932306ED
:1038600085E08093240681E08093250608955058D2
:10387000BB27AA270ED075C166D130F06BD120F0DE
:1038800031F49F3F11F41EF45BC10EF4E095E7FBA9
:1038900051C1E92F77D180F3BA1762077307840704
:1038A000950718F071F49EF58FC10EF4E0950B2E7C
:1038B000BA2FA02D0B01B90190010C01CA01A00182
:1038C0001124FF27591B99F0593F50F4503E68F1DD
:1038D0001A16F040A22F232F342F4427585FF3CF1E
:1038E000469537952795A795F0405395C9F77EF4EF
:1038F0001F16BA0B620B730B840BBAF09150A1F038
:10390000FF0FBB1F661F771F881FC2F70EC0BA0FBD
:10391000621F731F841F48F4879577956795B79545
:10392000F7959E3F08F0B3CF9395880F08F099273D
:10393000EE0F979587950895D9D008F481E0089502
:103940000CD00FC107D140F0FED030F021F45F3F22
:1039500019F0F0C0511139C1F3C014D198F3992373
:10396000C9F35523B1F3951B550BBB27AA27621743
:103970007307840738F09F5F5F4F220F331F441F88
:10398000AA1FA9F333D00E2E3AF0E0E830D09150C0
:103990005040E695001CCAF729D0FE2F27D0660FAD
:1039A000771F881FBB1F261737074807AB07B0E8EC
:1039B00009F0BB0B802DBF01FF2793585F4F2AF002
:1039C0009E3F510568F0B6C000C15F3FECF3983EE2
:1039D000DCF3869577956795B795F7959F5FC9F75F
:1039E000880F911D9695879597F90895E1E0660FE8
:1039F000771F881FBB1F621773078407BA0720F061
:103A0000621B730B840BBA0BEE1F88F7E0950895C9
:103A100004D06894B111D9C00895BCD088F09F57E4
:103A200090F0B92F9927B751A0F0D1F0660F771F0A
:103A3000881F991F1AF0BA95C9F712C0B13081F0EA
:103A4000C3D0B1E00895C0C0672F782F8827B85F32
:103A500039F0B93FCCF3869577956795B395D9F74B
:103A60003EF490958095709561957F4F8F4F9F4F55
:103A70000895E89409C097FB3EF490958095709561
:103A800061957F4F8F4F9F4F9923A9F0F92F96E9AA
:103A9000BB279395F695879577956795B795F1111F
:103AA000F8CFFAF4BB0F11F460FF1BC06F5F7F4FBC
:103AB0008F4F9F4F16C0882311F096E911C07723CE
:103AC00021F09EE8872F762F05C0662371F096E8D7
:103AD000862F70E060E02AF09A95660F771F881FA6
:103AE000DAF7880F9695879597F90895990F00084A
:103AF000550FAA0BE0E8FEEF16161706E807F907C0
:103B0000C0F012161306E407F50798F0621B730B5A
:103B1000840B950B39F40A2661F0232B242B252BDB
:103B200021F408950A2609F4A140A6958FEF811D7E
:103B3000811D089597F99F6780E870E060E008951F
:103B40009FEF80EC089500240A94161617061806B5
:103B50000906089500240A94121613061406050691
:103B60000895092E0394000C11F4882352F0BB0F22
:103B700040F4BF2B11F460FF04C06F5F7F4F8F4F85
:103B80009F4F089557FD9058440F551F59F05F3FC0
:103B900071F04795880F97FB991F61F09F3F79F06F
:103BA00087950895121613061406551FF2CF4695F1
:103BB000F1DF08C0161617061806991FF1CF869573
:103BC0007105610508940895E894BB276627772757
:103BD000CB0197F908958ADF08F48FEF08950BD091
:103BE000C0CFB1DF28F0B6DF18F0952309F0A2CFDF
:103BF000A7CF1124EACFC6DFA0F3959FD1F3950F8D
:103C000050E0551F629FF001729FBB27F00DB11D60
:103C1000639FAA27F00DB11DAA1F649F6627B00DF0
:103C2000A11D661F829F2227B00DA11D621F739FD9
:103C3000B00DA11D621F839FA00D611D221F749FE7
:103C40003327A00D611D231F849F600D211D822F2E
:103C5000762F6A2F11249F5750408AF0E1F0882375
:103C60004AF0EE0FFF1FBB1F661F771F881F915082
:103C70005040A9F79E3F510570F05CCFA6CF5F3F43
:103C8000ECF3983EDCF3869577956795B795F795B5
:103C9000E7959F5FC1F7FE2B880F911D969587953D
:103CA00097F9089511F40EF44BCF42C073DFD0F3AF
:103CB0009923D9F3CEF39F57550B87FF47D00024A4
:103CC000A0E640EA900180585695979528F4805CCC
:103CD000660F771F881F20F026173707480730F434
:103CE000621B730B840B202931294A2BA69517944C
:103CF0000794202531254A2758F7660F771F881F1C
:103D000020F026173707480730F4620B730B840B3B
:103D1000200D311D411DA09581F7B901842F9158C7
:103D2000880F969587950895E1DE880B990B089585
:103D30009F3F31F0915020F4879577956795B7951F
:103D4000880F911D9695879597F908959150504049
:103D5000660F771F881FD2F70895AA1BBB1B51E17E
:103D600007C0AA1FBB1FA617B70710F0A61BB70BEB
:103D7000881F991F5A95A9F780959095BC01CD0190
:103D8000089597FB072E16F4009407D077FD09D00D
:103D90000E94AD1E07FC05D03EF4909581959F4F83
:103DA0000895709561957F4F0895A1E21A2EAA1B80
:103DB000BB1BFD010DC0AA1FBB1FEE1FFF1FA217DB
:103DC000B307E407F50720F0A21BB30BE40BF50BD8
:103DD000661F771F881F991F1A9469F76095709561
:103DE000809590959B01AC01BD01CF010895052EF2
:103DF00097FB1EF400940E940E1F57FD07D00E94EF
:103E0000D51E07FC03D04EF40C940E1F5095409520
:103E1000309521953F4F4F4F5F4F08959095809576
:103E2000709561957F4F8F4F9F4F08950E941E1F81
:103E3000332312F48A1B9B0B0C942F1FA29FB001FB
:103E4000B39FC001A39F700D811D1124911DB29FCE
:103E5000700D811D1124911D08950E941E1FB7FF32
:103E60000895821B930B08950E941E1FA59F900D1D
:103E7000B49F900DA49F800D911D11240895EE0F05
:0E3E8000FF1F0590F491E02D0994F894FFCFF8
:103E8E000A000071430172617370696D6F6E202DAF
:103E9E0020656D6F6E54782056332E34204469732E
:103EAE0063726574652053616D706C696E67205620
:103EBE00002052464D36394357004F70656E456EA1
:103ECE00657267794D6F6E69746F722E6F726700CF
:103EDE00504F53542E2E2E2E2E7761697420313072
:103EEE007300435420312043616C20004354203230
:103EFE002043616C2000435420332043616C20002A
:103F0E00435420342043616C2000524D5320566F91
:103F1E006C74616765206F6E2041432D41432020F4
:103F2E0069733A207E0041432D41432064657465D8
:103F3E0063746564202D205265616C20506F776527
:103F4E0072206D65617375726520656E61626C6558
:103F5E006400617373756D696E6720707772206689
:103F6E00726F6D2041432D414320286A756D706537
:103F7E007220636C6F7365642900555341206D6F19
:103F8E00646520616374697665005663616C3A20DE
:103F9E000050686173652053686966743A20004169
:103FAE00432D4143204E4F54206465746563746500
:103FBE0064202D204170706172656E74205077728E
:103FCE00206D65617375726520656E61626C6564E6
:103FDE0000417373756D696E672056524D533A20CA
:103FEE0000417373756D696E6720706F776572200F
:103FFE0066726F6D2062617474202F2035562055C5
:10400E005342202D20706F77657220736176652084
:10401E00656E61626C6564004E4F204354277320B9
:10402E00646574656374656400435420312064656F
:10403E00746563746564004354203220646574654E
:10404E00637465640043542033206465746563743F
:10405E00656400435420342064657465637465643C
:10406E000044657465637465642054656D702053F7
:10407E00656E736F72733A2020004E6F2074656DFB
:10408E0070657261747572652073656E736F720000
:10409E004E6F64653A200020467265713A200034F6
:1040AE0033334D687A00204E6574776F726B3A2009
:1040BE00004354312043543220435433204354346C
:1040CE002056524D532F424154542050554C534577
:1040DE00002054656D706572617475726520312DA6
:1040EE000072756E74696D653A2000736C6565704B
:1040FE0020666F7220286D696C697365636F6E64DC
:10410E0073293A20002B565A5E00BC0077016E616F
:10411E006E00696E66006F7666002E00000000006D
:0C412E004D1A8D17F919221A091A421AAD
:00000001FF
